:020000040800F2
:1000000070860020450100084D0100084F010008DE
:1000100051010008530100085501000800000000CC
:100020000000000000000000000000005701000870
:1000300059010008000000005B0100085D01000894
:100040005F0100085F0100085F0100085F01000810
:100050005F0100085F0100085F0100085F01000800
:100060005F0100085F0100085F0100085F010008F0
:100070005F0100085F0100085F0100085F010008E0
:100080005F0100085F0100085F0100085F010008D0
:100090005F0100085F0100085F0100085F010008C0
:1000A0005F0100085F0100085F0100085F010008B0
:1000B0005F0100085F0100085F0100085F010008A0
:1000C0005F0100085F0100085F0100085F01000890
:1000D0005F010008452E00085F010008E92D0008B7
:1000E0005F0100085F0100085F0100085F01000870
:1000F0005F0100085F0100085F0100085F01000860
:100100005F0100085F0100085F0100085F0100084F
:100110005F0100085F010008292400085F01000852
:100120005F0100085F0100085F0100085F0100082F
:10013000DFF80CD004F00AF800480047ED2300086F
:10014000708600200648804706480047FEE7FEE725
:10015000FEE7FEE7FEE7FEE7FEE7FEE7FEE7FEE777
:1001600047020008310100080CB500200190009002
:100170006C48006840F480306A49086000BF6948F4
:10018000006800F4003000900198401C0190009835
:1001900018B90198B0F5A06FF1D16248006800F479
:1001A000003010B10120009001E000200090009884
:1001B000012843D15C48006840F010005A490860AB
:1001C0000846006820F0030008600846006840F018
:1001D0000200086053484068524948600846406839
:1001E00048600846406840F48060486008464068BF
:1001F00020F47C1048600846406840F4E8104860ED
:100200000846006840F08070086000BF45480068FC
:1002100000F000700028F9D04248406820F0030048
:10022000404948600846406840F00200486000BF0E
:100230003C48406800F00C000828F9D10CBD10B50E
:10024000FFF792FF10BD10B53648006840F001007E
:1002500034490860084640683449084031494860DC
:1002600008460068324908402E4908600846006880
:1002700020F4802008600846406820F4FE004860B2
:100280004FF41F008860FFF7DAFF4FF00060294944
:10029000086010BD10B5002100200022214B5B68D2
:1002A00003F00C0121B1042906D0082928D107E068
:1002B000214B224C236027E01F4B204C236023E07E
:1002C000184B5B6803F47010164B5B6803F48032C4
:1002D000022303EB904022B9194B4343174C236090
:1002E0000DE0104B5B6803F4003323B1144B434320
:1002F000124C236003E0104B4343104C236003E097
:100300000D4B0E4C236000BF00BF064B5B68C3F370
:1003100003130C4CE15C094B1B68CB40074C23607A
:1003200010BD000000100240002002400000FFF855
:10033000FFFFF6FE08ED00E000127A00000000204A
:1003400000093D000400002031490143314A116099
:10035000704770B5002100230F22C47804B32D4CE0
:10036000246804F4E064C4F5E064210AC1F10403E4
:10037000CA40447804FA03F1847814402143090107
:10038000254C0678A155047804F01F050124AC40E3
:1003900005786D11AD0005F1E025C5F8004109E0D3
:1003A000047804F01F050124AC401C4D067876113A
:1003B00045F8264070BD1A4A0A400243154B1B1FE0
:1003C0001A60704739B1134A121D12680243114B6B
:1003D0001B1D1A6006E00F4A121D126882430D4B66
:1003E0001B1D1A607047042808D14FF0E0210969ED
:1003F00041F004014FF0E022116107E04FF0E021ED
:10040000096921F004014FF0E022116170470000FA
:100410000000FA050CED00E000E400E080E100E0FF
:1004200080FFFF1F10B50446FA48844208D101211D
:10043000401500F07FFE0021601500F07BFE17E004
:10044000F548844208D10121001500F073FE002117
:10045000201500F06FFE0BE0F048844208D1012126
:10046000C80300F067FE00214FF4004000F062FE78
:1004700010BD30B50246002000235068E84C2040F3
:100480000D790C6844EA0524204350609068E54CDF
:100490002040D1E902542C434D7944EA45042043DD
:1004A0009060D06A20F470000C7C641EE4B2234398
:1004B00040EA0350D06230BD0021016001714171FA
:1004C0008160C16001210174704721B1826842F0EE
:1004D0000102826003E0826822F0010282607047BC
:1004E00021B1826842F48072826003E0826822F463
:1004F00080728260704710B50023CBB21AB1446895
:100500001C43446002E044689C43446010BD816821
:1005100041F0080181607047014600208A6802F0BE
:1005200008020AB1012000E000207047816841F014
:10053000040181607047014600208A6802F00402CD
:100540000AB1012000E00020704721B1826842F426
:10055000A002826003E0826822F4A00282607047F9
:10056000014600208A6802F480020AB1012000E0FE
:100570000020704710B50A4600210023416821F48D
:100580006041531E41EA4331416010BD21B14268D0
:1005900042F40062426003E0426822F4006242607A
:1005A0007047F0B504460D4600200021092D11DDED
:1005B000E068A5F10A0606EB4607072606FA07F1EA
:1005C0008843A5F10A0606EB460603FA06F108433E
:1005D000E0600CE0206905EB4507072606FA07F105
:1005E000884305EB450603FA06F108432061072A14
:1005F0000FDA606B561E06EB86071F2606FA07F118
:100600008843561E06EB860605FA06F1084360632A
:1006100022E00D2A0FDA206BD61F06EB86071F2675
:1006200006FA07F18843D61F06EB860605FA06F19F
:100630000843206310E0E06AA2F10D0606EB86078E
:100640001F2606FA07F18843A2F10D0606EB86067F
:1006500005FA06F10843E062F0BD21B1826842F478
:100660008012826003E0826822F480128260704708
:100670000146C86C80B2704766484C3000687047CD
:1006800021B1426842F48062426003E0426822F491
:1006900080624260704721B1426842F480524260F9
:1006A00003E0426822F48052426070470A4600210B
:1006B000816821F4E04111438160704721B1826873
:1006C00042F40042826003E0826822F400428260C9
:1006D000704721B1826842F40212826003E08268AE
:1006E00022F4021282607047014600208A6802F4F8
:1006F00000120AB1012000E000207047F0B5044666
:100700001546002000220026092911DDE068A1F12C
:100710000A0707EB470C072707FA0CF29043A1F1F1
:100720000A0707EB470703FA07F21043E0600CE003
:10073000206901EB410C072707FA0CF2904301EB0B
:10074000410703FA07F210432061A06BC0F3015682
:10075000EF1C06F1010CA7EB0C0707EB870C1F271A
:1007600007FA0CF29043EF1C06F1010CA7EB0C0703
:1007700007EB870701FA07F21043A063F0BD10B53D
:100780000A4600210023816B21F44011531E41EAE7
:100790000351816310BD08B5002300930090009BB6
:1007A0000B440093009B1A6008BD08B50246002068
:1007B0000090009201F12800009B184400900098DE
:1007C000006880B208BD0A4600214168164B1940F6
:1007D0001143416070474162826270470A460021BE
:1007E000416821F01F0111434160704740B1094940
:1007F0000831096841F40001064A0832116007E037
:1008000004490831096821F40001024A08321160E4
:10081000704700000024014000280140003C0140D6
:10082000FFFEF0FFFDF7F1FFFFFD3FFF0246002056
:1008300013680B400BB1012000E000207047CA4351
:100840000260704770B502460020002300240B129E
:100850005568CEB205EA060415681D4015B10CB105
:10086000012000E0002070BD00220A12D343036083
:100870007047000001684FF6FE72114001600021D0
:10088000016041608160C1608D49884208D18C4916
:100890000839496841F00F01894A083A51608AE0F5
:1008A00087491431884208D185490839496841F09F
:1008B000F001834A083A51607DE08149283188423D
:1008C00008D17F490839496841F470617C4A083A87
:1008D000516070E07A493C31884208D17849083942
:1008E000496841F47041764A083A516063E07449BE
:1008F0005031884208D172490839496841F4702161
:100900006F4A083A516056E06D496431884208D117
:100910006B490839496841F47001694A083A5160E5
:1009200049E067497831884208D165490839496802
:1009300041F07061624A083A51603CE06149884286
:1009400006D1011F096841F00F01021F116032E05A
:100950005C491431884208D15A49091F096841F09D
:10096000F001584A121F116025E05649283188428B
:1009700008D15449091F096841F47061514A121F96
:10098000116018E04F493C31884208D14D49091F98
:10099000096841F470414B4A121F11600BE049494C
:1009A0005031884207D14749091F096841F4702135
:1009B000444A121F1160704710B50022026847F6C2
:1009C000F0739A430C6A8B6823430C6923434C6988
:1009D00023438C692343CC6923434C6A23438C6AA9
:1009E00023431A430260CB6843600B6883604B6803
:1009F000C36010BD0021016041608160C160016180
:100A000041618161C161016241628162704721B1CE
:100A1000026842F00102026004E002684FF6FE73D1
:100A20001A40026070471AB103680B43036002E08A
:100A300003688B4303607047416070470146486814
:100A400080B2704701460020002201F080531BB1A4
:100A50001C4B083B1A6802E0194B083B1A6802EA73
:100A600001030BB1012000E00020704700F080512D
:100A700019B11449091F086002E01149083948609A
:100A8000704701460020002201F080531BB10D4B3E
:100A9000083B1A6802E00A4B083B1A6802EA0103A5
:100AA0000BB1012000E00020704700F0805119B127
:100AB0000449091F086002E001490839486070478D
:100AC000080002400804024010B50446CC488442A5
:100AD00008D10121042000F02DFB0021042000F0AA
:100AE00029FB46E0C748844208D10121082000F0D4
:100AF00021FB0021082000F01DFB3AE0C24884429F
:100B000008D10121102000F015FB0021102000F079
:100B100011FB2EE0BD48844208D10121202000F0C5
:100B200009FB0021202000F005FB22E0B8488442A8
:100B300008D10121402000F0FDFA0021402000F002
:100B4000F9FA16E0B348844208D10121802000F070
:100B5000F1FA0021802000F0EDFA0AE0AE4884426C
:100B600007D10121801500F0E5FA0021A01500F061
:100B7000E1FA10BD10B50121084600F0DBFA0021B2
:100B8000012000F0D7FA10BD2DE9F0410246002502
:100B90000026002000230024002791F803C00CF059
:100BA0000F0591F803C00CF0100CBCF1000F03D03E
:100BB00091F802C04CEA050591F800C0BCF1000FA5
:100BC00031D0146800202BE04FF0010C0CFA00F338
:100BD000B1F800C00CEA03069E4220D183004FF01A
:100BE0000F0C0CFA03F7BC4305FA03FC4CEA0404AF
:100BF00091F803C0BCF1280F06D14FF0010C0CFA9C
:100C000000FCC2F814C00AE091F803C0BCF1480F20
:100C100005D14FF0010C0CFA00FCC2F810C0401CCA
:100C20000828D1D31460B1F800C0BCF1FF0F34DD47
:100C3000546800202EE000F1080C4FF0010808FA7B
:100C40000CF3B1F800C00CEA03069E4221D18300E8
:100C50004FF00F0C0CFA03F7BC4305FA03FC4CEA07
:100C6000040491F803C0BCF1280F05D100F1080C71
:100C700008FA0CF8C2F8148091F803C0BCF1480FD0
:100C800007D100F1080C4FF0010808FA0CF8C2F87F
:100C90001080401C0828CED35460BDE8F0814FF688
:100CA000FF710180022181700421C17070470246EA
:100CB000002093680B400BB1012000E0002070473A
:100CC0000146886880B2704702460020D3680B4016
:100CD0000BB1012000E0002070470146C86880B2D7
:100CE000704701617047416170470AB1016100E0DE
:100CF00041617047C16070474FF480320A4382619E
:100D00008161826182698269704702460020434B9B
:100D100018684FF68073184040EA021008433F4BB2
:100D2000186070473E49C8617047F0B50A46002315
:100D300000240021002500F00046B6F1004F02D14A
:100D4000364EF16901E0354E7168C0F3034583B258
:100D500000F44016B6F5401F08D121F070612F4E07
:100D6000766826F070662D4F7E6012E000F48016E3
:100D7000B6F5801F06D1032606FA05F4A14341F01B
:100D8000706106E0460D360103FA06F6B14341F004
:100D9000706122B1460D360103FA06F6314300F0C8
:100DA0000046B6F1004F02D11C4EF16101E01B4E2E
:100DB0007160F0BD30B500228B071C0F0F2303FAC2
:100DC00004F2164B08338C1053F824309343134C21
:100DD00008348D1044F8253023468C1053F8243005
:100DE0008C07240F00FA04F423430C4C08348D10B4
:100DF00044F8253030BD0A49DC31086070470000F6
:100E000000080140000C01400010014000140140A6
:100E100000180140001C014000200140000001407A
:100E200000002042DF48006840F00100DD49086012
:100E300008464068DC490840DA49486008460068CE
:100E4000DA490840D74908600846006820F4802045
:100E500008600846406820F4FE0048604FF41F0018
:100E600088607047CF49096821F48031CD4A11600C
:100E70001146096821F480211160B0F5803F03D04C
:100E8000B0F5802F0ED106E0C649096841F48031E3
:100E9000C44A116007E0C349096841F4A021C14A6E
:100EA000116000E000BF00BF704710B5014600228E
:100EB000002300204A11012A02D1BA4C236806E01F
:100EC000022A02D1B74C236A01E0B64C636A01F0F2
:100ED0001F02012494401C400CB1012000E00020BE
:100EE00010BD38B5002000900024002500BF31203F
:100EF000FFF7DBFF05460098401C00900098B0F516
:100F0000A06F01D0002DF2D03120FFF7CEFF08B145
:100F1000012400E00024204638BD01460020A14AFB
:100F2000106820F0F80040EAC10010607047A04946
:100F300008607047024600209A4B586820F47C10E5
:100F400042EA01031843974B586070479849086676
:100F5000704701460020934A506820F00300084380
:100F6000506070478F48406800F00C0070470146A1
:100F700000208C4A506820F0F00008435060704711
:100F800001460020874A506820F4E0600843506022
:100F9000704701460020834A506820F4605040EAC0
:100FA000C1005060704729B17E4A527A02437D4B9E
:100FB0005A7204E07B4A527A82437A4B5A727047E3
:100FC0007B49D8310860704701460020754A506857
:100FD00020F440400843506070470021714A20329D
:100FE0001170704A82F82010012802D004280AD11A
:100FF00004E001216B4A2032117005E00521694AA5
:101000002032117000E000BF00BF704769490860DE
:1010100070476449096A0143624A11627047654931
:1010200044390860704730B50021002200240023B5
:101030005C4D6D6805F00C0121B1042905D008292B
:1010400023D105E05C4D056022E05B4D05601FE0AB
:10105000544D6D6805F47012524D6D6805F480347E
:10106000022505EB92421CB9544D554305600BE037
:101070004C4D6D6805F400351DB1504D554305606C
:1010800002E04D4D5543056002E04B4D056000BF49
:1010900000BF444D6D6805F0F0010909484D6B5CD7
:1010A0000568DD4045603F4D6D6805F4E061090A63
:1010B000434D6B5C4568DD4085603A4D6D6805F4D5
:1010C0006051C90A3E4D6B5C4568DD40C560354DD9
:1010D0006D6805F44041890B3A4D6B5CC568B5FB02
:1010E000F3F5056130BD29B12E4A526902432D4BFB
:1010F0005A6104E02B4A526982432A4B5A61704775
:1011000029B1284A92690243264B9A6104E0254A94
:1011100092698243234B9A61704729B1214AD2696F
:101120000243204BDA6104E01E4AD26982431D4B20
:10113000DA61704729B11B4AD2680243194BDA6061
:1011400004E0184AD2688243164BDA60704729B12E
:10115000144A12690243134B1A6104E0114A1269DE
:101160008243104B1A61704712494039086070473A
:101170000F49C86470470B49C87170470948406AF5
:1011800040F0807007494862704701460020054AD8
:1011900092680A400AB1012000E00020704701492E
:1011A00088727047001002400000FFF8FFFFF6FE53
:1011B000000042428004424200127A0000093D00D1
:1011C000140000202400002010B50446FE4884428C
:1011D00008D10121C014FFF7ADFF0021E014FFF793
:1011E000A9FFC4E0B4F1804F08D101210846FFF700
:1011F000AEFF00210120FFF7AAFFB8E0F3488442C8
:1012000008D101210220FFF7A2FF00210220FFF7F1
:101210009EFFACE0EE48844208D101210420FFF794
:1012200096FF00210420FFF792FFA0E0E9488442E6
:1012300008D101210820FFF78AFF00210820FFF7CD
:1012400086FF94E0E448844208D101211020FFF792
:101250007EFF00211020FFF77AFF88E0DF488442FC
:1012600008D101212020FFF772FF00212020FFF785
:101270006EFF7CE0DA48844208D101214014FFF778
:1012800059FF00216014FFF755FF70E0D5488442F4
:1012900009D10121C804FFF74DFF00214FF40020C0
:1012A000FFF748FF63E0D048844209D101210805D7
:1012B000FFF740FF00214FF48010FFF73BFF56E09F
:1012C000CA48844209D101214805FFF733FF0021B4
:1012D0004FF40010FFF72EFF49E0C548844208D1C3
:1012E00001214020FFF733FF00214020FFF72FFFAF
:1012F0003DE0C048844208D101218020FFF727FF4C
:1013000000218020FFF723FF31E0BB48844208D151
:1013100001218015FFF71BFF0021A015FFF717FF24
:1013200025E0B648844209D101210804FFF702FFF5
:1013300000214FF48030FFF7FDFE18E0B0488442F2
:1013400009D101214804FFF7F5FE00214FF40030D8
:10135000FFF7F0FE0BE0AB48844208D1012188047E
:10136000FFF7E8FE00214FF48020FFF7E3FE10BDF9
:1013700000220288944B98420ED0994B98420BD091
:10138000B0F1804F08D0914B984205D0904B9842D5
:1013900002D0904B984204D14FF68F731A404B887D
:1013A0001A438D4B984207D08C4B984204D04FF68D
:1013B000FF431A40CB881A4302808B8883850B88B1
:1013C0000385814B98420BD0854B984208D08B4BBC
:1013D000984205D08A4B984202D08A4B984201D15C
:1013E0000B7A038601238382704770B500240022A4
:1013F0000023058C4FF6FE7635400584028C8388E9
:10140000048B4FF68F752C40B51E2C400D882C4355
:10141000751E2A400D892A434D882A436A4DA842E9
:101420000BD06F4DA84208D0744DA84205D0744D22
:10143000A84202D0734DA84213D14FF6F7752A4047
:101440004D892A434FF6FB752A408D882A434FF673
:10145000FF652B404FF6FF552B408D892B43CD89DF
:101460002B4383800483CD888586028470BD70B54C
:10147000002400220023058C4FF6EF7635400584CA
:10148000028C8388048B48F6FF752C404FF6FF458D
:101490002C400D884FF6FF7606EA05252C434FF6C3
:1014A000DF752A400D8906EA05152A434D8806EAAC
:1014B00005152A43444DA84202D0494DA8421DD1EA
:1014C0004FF67F752A404D894FF6FF7606EA0515DF
:1014D0002A434FF6BF752A408D8806EA05152A4330
:1014E0004FF6FF352B404FF2FF752B408D8906EAF2
:1014F00085052B43CD8906EA85052B43838004832C
:10150000CD880587028470BD70B5002400220023B9
:10151000058C4FF6FF6635400584028C8388848BEA
:101520004FF68F752C404FF6FC752C400D882C43E0
:101530004FF6FF552A400D894FF6FF7606EA05253E
:101540002A434D8806EA05252A431F4DA84202D0AA
:10155000234DA8421DD14FF2FF752A404D894FF609
:10156000FF7606EA05252A434FF6FF352A408D8887
:1015700006EA05252A434EF6FF752B404DF6FF750A
:101580002B408D8906EA05152B43CD8906EA051502
:101590002B4383808483CD888587028470BD70B59A
:1015A000002200230024058C4EF6FF76354005848A
:1015B000038C8488828B48F6FF752A404FF6FF45DE
:1015C0002A400D8820E00000002C0140000400406B
:1015D00000080040000C00400010004000140040D3
:1015E00000340140004C01400050014000540140D3
:1015F00000180040001C0040002000400040014056
:1016000000440140004801404FF6FF7606EA0525F8
:101610002A434DF6FF752B400D8906EA05352B430D
:101620004D8806EA05352B43FA4DA84202D0FA4D03
:10163000A84208D14BF6FF752C408D894FF6FF76F6
:1016400006EA85152C4384808283CD88A0F840501B
:10165000038470BD828B4FF2FF331A408283828BEA
:101660004FF6FF7303EA01231A4382837047F0B5F4
:101670000C461546002200210026078C4EF6FF7C02
:1016800007EA0C070784828B018C4FF6FF7707EA85
:10169000043640F6FF473A404FF6FF7707EA052742
:1016A0003A434FF6FF7707EA03373A43D94FB84238
:1016B0000ED0D94FB8420BD0B0F1804F08D0D74FE1
:1016C000B84205D0D64FB84202D0D64FB84206D164
:1016D0004DF6FF77394046F48057394305E047F629
:1016E000FF57394044F48057394382830184F0BD69
:1016F000828B4FF6F3731A408283828B0A43828374
:101700007047F0B50C461546002200210026078CD4
:101710004FF6FF6C07EA0C070784828B018C4FF6AB
:10172000FF7707EA04264FF60C773A404FF6FF772B
:1017300007EA03172F433A43B64FB8420ED0B64FCD
:10174000B8420BD0B0F1804F08D0B44FB84205D0AA
:10175000B34FB84202D0B34FB84206D14FF6FF574D
:10176000394046F48077394305E04FF2FF5739405E
:1017700044F48077394382830184F0BD028B4FF2B9
:10178000FF331A400283028B4FF6FF7303EA0123F3
:101790001A4302837047F0B50C461546002200211B
:1017A0000026078C4FF6EF7C07EA0C070784028BB4
:1017B000018C4FF6FF7707EA041640F6FF473A40E0
:1017C0004FF6FF7707EA03373A434FF6FF7707EA0A
:1017D00005273A438F4FB8420ED08F4FB8420BD0F7
:1017E000B0F1804F08D08D4FB84205D08C4FB84231
:1017F00002D08C4FB84206D14FF6DF77394046F021
:101800001007394305E04FF65F77394044F0100781
:10181000394302830184F0BD028B4FF6F3731A4003
:101820000283028B0A4302837047F0B50C461546CB
:1018300000220021068C4FF6FE773E400684028B84
:10184000018C4FF60C7632407E1C06EA03162E43BE
:101850003243704EB0420ED06F4EB0420BD0B0F15A
:10186000804F08D06D4EB04205D06D4EB04202D0D0
:101870006C4EB04206D14FF6FD76314044F0010681
:10188000314305E04FF6F576314044F0010631432F
:1018900002830184F0BD70B505460C465D48854263
:1018A0000ED05D4885420BD0B5F1804F08D05B4823
:1018B000854205D05A48854202D05A48854200D117
:1018C00000E000BF208850B92389A288618828469B
:1018D000FFF7ABFFE1882846FFF79EFF25E0208851
:1018E00004280AD12389A28861882846FFF753FF7C
:1018F000E1882846FFF742FF17E0208808280AD130
:101900002389A28861882846FFF7FBFEE1882846E4
:10191000FFF7EEFE09E02389A28861882846FFF7D9
:10192000A6FEE1882846FFF795FE70BD2DE9F0413F
:1019300005460C4600260127608808B9022600E00B
:101940000026A088012801D1022700E00127208875
:10195000A0B92389A28861882846FFF766FFE1883D
:101960002846FFF759FF23893A4631462846FFF7B4
:1019700012FFE1882846FFF701FF13E02389A288C0
:1019800061882846FFF707FFE1882846FFF7F6FE43
:1019900023893A4631462846FFF747FFE188284623
:1019A000FFF73AFFBDE8F0810A884B881A438B881D
:1019B0001A43CB881A430B891A434B891A438B89E4
:1019C0001A43A0F8442070474FF6FF718180002130
:1019D0000180C180418001727047002101804180F7
:1019E0008180C180018141818181C1817047002155
:1019F00001804180012181800021C18001817047E7
:101A00000021018041808180C180018141818181EB
:101A100070470000002C01400034014000040040E9
:101A200000080040000C004021B1028842F0010291
:101A3000028004E002884FF6FE731A40028070476D
:101A400031B1B0F8442042F40042A0F8442005E04F
:101A5000B0F84420C2F30E02A0F8442070471AB137
:101A600083890B43838102E083898B4383817047A1
:101A70008182704741EA0203A0F8483070471AB1EA
:101A800083890B43838102E083898B438381704781
:101A900001894FF6F8721140018170470A46002112
:101AA00001894FF68F73194011430181704730B59A
:101AB00004460D4629462046FFF7F0FF208940F0F6
:101AC0000700208130BD2DE9F04104460D46164641
:101AD0001F46602D06D13B46012231462046FFF7C6
:101AE0005AFE05E03B46012231462046FFF79DFEA7
:101AF00029462046FFF7D2FF208940F007002081C9
:101B0000BDE8F08130B50C4600210189C9B24FF61D
:101B1000FF7505EA0325154325432943018130BD9F
:101B20002DE9F04105460E461746984600244346E7
:101B30003A4631462846FFF7E5FF2C894FF6F87004
:101B4000044044F007044FF68F70044044F07004E2
:101B50002C81BDE8F081F0B504460D4616461F46BF
:101B60003B46324629462046FFF7CCFF208940F409
:101B700080402081F0BD0185828270470A460021A5
:101B800001884FF68F731940114301807047F0B5FB
:101B90000C4615461E460021002200230189028BB7
:101BA000038C4FF6F877394021434FF6FC473A4013
:101BB00040F201173A434FF6DD773B404FF6FF778F
:101BC00007EA06172F433B43018102830384F0BDDC
:101BD0000A460021018B4FF68F7319401143018390
:101BE00070470A460021018B48F6FF7319404FF6F3
:101BF000FF7303EA02231943018370470A46002159
:101C0000818B4FF68F7319401143818370470A46C9
:101C10000021818B48F6FF7319404FF6FF7303EAEA
:101C2000022319438183704721B1028842F0800268
:101C3000028004E002884FF67F731A4002807047EA
:101C400021B1828842F00402828004E082884FF64B
:101C5000FB731A408280704721B1828842F00802EB
:101C6000828004E082884FF6F7731A4082807047C2
:101C700021B1828842F00102828004E082884FF61E
:101C8000FE731A40828070470A460021018B4FF68E
:101C9000F77319401143018370470A460021018BF5
:101CA0004FF2FF7319404FF6FF7303EA0223194303
:101CB000018370470A460021818B4FF6F773194064
:101CC0001143818370470A460021818B4FF2FF73D5
:101CD00019404FF6FF7303EA0223194381837047CB
:101CE0000A460021018B4FF6FB7319401143018313
:101CF00070470A460021018B4FF6FF3319404FF61B
:101D0000FF7303EA02231943018370470A46002147
:101D1000818B4FF6FB7319401143818370470A464C
:101D20000021818B4FF6FF3319404FF6FF7303EA12
:101D300002231943818370470A460021018B4FF625
:101D40007F7319401143018370470A460021018BBC
:101D5000C1F30E014FF6FF7303EA02231943018317
:101D600070470A460021818B4FF67F73194011435B
:101D7000818370470A460021818BC1F30E014FF623
:101D8000FF7303EA02231943818370470A46002147
:101D9000018C4FF6FD7319401143018470470A46C8
:101DA0000021018C4FF6F7731940114301847047ED
:101DB0000A460021018C4FF6DF7319404FF6FF737E
:101DC00003EA02131943018470470A460021018C7B
:101DD0004FF67F7319404FF6FF7303EA021319435E
:101DE000018470470A460021018C4FF6FF531940C9
:101DF0004FF6FF7303EA02231943018470470A4632
:101E00000021018C4FF2FF7319404FF6FF7303EA74
:101E100002231943018470470A460021018C4DF6C4
:101E2000FF7319404FF6FF7303EA0233194301842D
:101E3000704730B5002301248C40A3B2048C9C432E
:101E40000484048C02FA01F5ADB22C43048430BD45
:101E500030B5002304248C40A3B2048C9C4304843A
:101E6000048C02FA01F5ADB22C43048430BD70B588
:101E70000346002000241846183001258D40ACB2DE
:101E80001D8CA5431D8409B1082909D100EB61000F
:101E9000056825F0700505600568154305600EE0CE
:101EA0000D1FC5F34E052844056825F4E04505607F
:101EB00005684FF6FF7606EA02263543056070BDD9
:101EC00021B1028842F00202028004E002884FF64B
:101ED000FD731A400280704721B1028842F004026B
:101EE000028004E002884FF6FB731A4002807047BC
:101EF00021B1828842F08002828004E082884FF61D
:101F00007F731A408280704702884FF6F7731A4039
:101F1000028002880A430280704782884FF68F73DE
:101F20001A40828082880A438280704702894FF675
:101F3000F8731A40028102890A43028170470289BC
:101F40004FF67F731A40028102890A43028170476B
:101F5000818470478185704781867047018770470B
:101F600081877047A0F84010704702884FF6FF4302
:101F70001A40028002880A43028070470146888E18
:101F800070470146088F70470146888F70470146A9
:101F9000B1F8400070470146888C70470146088DB3
:101FA000704702460020138A0B400BB1012000E06D
:101FB00000207047CA430282704730B502460020B5
:101FC00000230024158A05EA0103958905EA010426
:101FD00013B10CB1012000E0002030BDCA430282E1
:101FE0007047000010B50446FB48844209D1012126
:101FF0008803FFF79FF800214FF48040FFF79AF81D
:1020000032E0F648844209D101214804FFF79FF8E5
:1020100000214FF40030FFF79AF825E0F0488442A1
:1020200009D101218804FFF792F800214FF48020A4
:10203000FFF78DF818E0EB48844209D10121C8046C
:10204000FFF785F800214FF40020FFF780F80BE040
:10205000E548844208D101210805FFF778F80021FE
:102060004FF48010FFF773F810BD2DE9F04786B0EC
:1020700005460E460024A24600BFA1460027B089AF
:1020800000B100BF2F462C8A4CF6FF700440F08848
:1020900004432C82AC894EF6F3100440B088318999
:1020A0000843718908430443AC81AC8A4FF6FF4072
:1020B0000440B0890443AC8201A8FEF7B4FFC648CF
:1020C000874202D1DDF810A001E0DDF80CA0A8895C
:1020D00000F4004040B10AEBCA0000EB0A1031687E
:1020E0004900B0FBF1F807E00AEBCA0000EB0A1068
:1020F00031688900B0FBF1F86420B8FBF0F004010E
:102100002009642101FB1089A88900F4004040B136
:10211000322000EBC900B0FBF1F000F007000443EF
:1021200008E0322000EB09106421B0FBF1F000F070
:102130000F0004432C8106B0BDE8F0874FF4165120
:10214000016000218180C18001810C214181002139
:102150008181704710B502460020108A4FF2FF03BC
:1021600018400B884C8823438C882343CC88234316
:102170001843108210BD0021018041808180C18000
:10218000704721B1828942F40052828104E0828941
:102190004DF6FF731A4082817047F0B50346002464
:1021A00000260025002040F66A17B94200D100BF82
:1021B0001846C1F3421401F01F06012707FA06F57D
:1021C000012C01D10C3004E0022C01D1103000E0D0
:1021D00014301AB107682F43076002E00768AF4365
:1021E0000760F0BD1AB1838A0B43838202E0838AC1
:1021F0008B4383827047028A4FF6F0731A40028243
:10220000028A0A430282704782894FF2FF731A40A2
:10221000828182890A438281704721B1828942F09A
:102220000202828104E082894FF6FD731A408281A6
:102230007047028A4FF6DF731A400282028A0A430D
:102240000282704721B1028A42F48042028204E095
:10225000028A4BF6FF731A4002827047C1F30802EC
:102260008280704701468888C0F3080070478189E2
:1022700041F0010181817047028BD2B20283028B4F
:1022800042EA012202837047028B02F47F420283FA
:10229000028B0A430283704721B1828A42F02002F6
:1022A000828204E0828A4FF6DF731A40828270478E
:1022B00021B1828A42F01002828204E0828A4FF6C3
:1022C000EF731A408282704721B1828A42F008027D
:1022D000828204E0828A4FF6F7731A408282704746
:1022E00021B1828942F40042828103E08289C2F3F3
:1022F0000E028281704721B1828A42F4006282829A
:1023000004E0828A4FF2FF731A4082827047828A09
:102310004FF6FB731A408282828A0A438282704798
:1023200021B1828A42F00202828204E0828A4FF660
:10233000FD731A408282704702460020B1F5007F8B
:1023400000D100BF13880B400BB1012000E000203A
:10235000704701F40072B2F5007F00D100BFCA439C
:102360000280704770B5024600240023002500203B
:1023700040F66A16B14200D100BFC1F3421501F028
:102380001F03012606FA03F3012D02D1968933407B
:1023900006E0022D02D1168A334001E0968A3340CE
:1023A0000C12012606FA04F41688344013B10CB15D
:1023B000012000E0002070BD10B50022002340F68F
:1023C0006A14A14200D100BF0A1201249440A3B2B2
:1023D000DC43048010BD0000003801400044004090
:1023E00000480040004C00400050004001F068FAF6
:1023F00000F0FEFD00F0B6FE01F02CF801F070F8E0
:1024000000F0FFFF01F0A6F901F0B2F900F0B8FD0D
:1024100001F0ECF801F049FA4FF4805001494861AD
:1024200000BFFEE70010014000B599B00121FB4854
:10243000FFF7C3FD002878D0F9480078F9490978FA
:1024400088420ED00820F84908608020F7490860CB
:102450004020086020200860F5480078401CF449BE
:102460000870F3480078142865D13120F1490870CC
:102470000FE00020F049EF4A127841F82200EF49BE
:10248000EC4A127841F82200EA480078401EE949F7
:102490000870E84800780028EBDC0020E649086076
:1024A000E6490860DF480078DD4908700846007892
:1024B00005283CD2DFE800F003101E2C3A0008206B
:1024C000D94908608020D949091F08604020086068
:1024D0002020091D08602AE00820D34908608020D8
:1024E000D249091F08604020091D08602020091FEB
:1024F00008601CE00820CC49091F08608020CB49F7
:1025000008604020091F08602020091D08600EE0B7
:102510000820C549091F08608020C4490860402080
:1025200008602020091F086001E0F8E300BF00BF39
:102530000020BF490870C2480078179000EBD070A7
:1025400041101798A0EB410000287DD1BD480088BC
:10255000BD490880BD480088BD49088047F2305118
:10256000B8482438FFF7F4FC47F23051B748243814
:10257000FFF7EEFC0320B74908601AE0B648B549FA
:10258000096850F821100246B2480068401C42F821
:102590002010B248AF49096850F821100246AD48F2
:1025A0000068401C42F82010AA480068401EA94953
:1025B0000860A84800680028E0DAA5480088A0F56F
:1025C000EA4030380D9001F096FC0022A44BCDE992
:1025D0000E0101F0AAFBA34AA34BCDE9100101F0C3
:1025E00016FC0022A14BCDE9120101F010FCA04A1B
:1025F000A04BCDE9140101F098FBCDE9160101F0E3
:10260000BFFC9649086090480088A0F5EA40303841
:102610000D9001F070FC0022914BCDE90E0101F00C
:1026200084FB904A904BCDE9100101F0F0FB0022B1
:102630008E4BCDE9120101F0EAFB8D4A8D4BCDE9BD
:10264000140101F072FB00E0B4E1CDE9160101F0E4
:1026500097FC81490860084600690D9001F07DFCF7
:10266000854A864BCDE90E0101F05FFBCDE91201F1
:102670007948C068099001F070FC4FF03332804B0C
:10268000CDE90A0101F051FBCDE90E0172488068E5
:10269000059001F062FC00227A4BCDE9060101F0C1
:1026A00044FBCDE90A016C484068019001F055FCFB
:1026B0004FF06632744BCDE9020101F036FBCDE9F3
:1026C000060165480068019001F047FC6F4A704BB5
:1026D000CDE9020101F029FBCDE90401DDE9062382
:1026E00001F07CFACDE90801DDE90A2301F076FA70
:1026F000CDE90C01DDE90E2301F070FACDE91001FE
:10270000DDE9122301F06AFA5B4A624BCDE914015C
:1027100001F00BFBCDE9160101F032FC5E490860C7
:102720004E4800690D9001F018FC534A534BCDE917
:102730000E0101F0FAFACDE912014848C06809908B
:1027400001F00BFC4FF033324D4BCDE90A0101F0A3
:10275000ECFACDE90E0141488068059001F0FDFBDF
:102760000022484BCDE9060101F0DFFACDE90A016C
:102770003A484068019001F0F0FB4FF06632424B5E
:10278000CDE9020101F0D1FACDE906013348006834
:10279000019001F0E2FB3D4A3D4BCDE9020101F021
:1027A000C4FACDE90401DDE9062301F017FACDE909
:1027B0000801DDE90A2301F011FACDE90C01DDE998
:1027C0000E2301F00BFACDE91001DDE9122301F02F
:1027D00005FA294A2F4BCDE9140101F0A6FACDE9FB
:1027E000160101F0CDFB2D49086000212A48006840
:1027F00001F0ECFB02D22848006803E0264800689C
:1028000080F000402449086000212448006801F05D
:10281000DDFB45D22148006846E000000010004082
:102820002900002028000020140C0140141401404D
:102830002A0000202C00002084010020BC00002081
:102840003C0000202408004046000020240C0040EA
:102850004400002030000020A80000209400002048
:102860000000D03F7B14AE47E17A943F00E8C740B8
:1028700025068195438BCC3F9A9999999999B93FAF
:102880003333D33F0000E03F6666E63FCDCCCCCC8F
:10289000CCCCEC3F9999D93F480000204C00002057
:1028A000FE48006880F00040FC490860FC48007861
:1028B000FC49097888427DD13120FB49087018E035
:1028C000F9480078401EF94951F82000F64A12787C
:1028D00041F82200F4480078401EF54951F82000E4
:1028E000F14A127841F82200EF480078401EEE4984
:1028F0000870ED4800780028E2DCEE480068EB49FB
:102900000860ED480068EA4908600020EB4908606B
:10291000EB490860E44908701EE0E448E2490978A0
:1029200050F8210001461790E448006801F08EF845
:10293000E2490860DE48DC49097850F82100014688
:102940001790DF48006801F081F8DD490860D6483B
:102950000078401CD4490870D34800783228DCDB6A
:10296000D849D648006801F0FBF8D4490860D54939
:10297000D348006801F0F4F8D1490860CF480168F5
:10298000D148006800F0CCFF1590CC48016815983C
:1029900001F05CF8CD49169001F0B0F801461790AF
:1029A000052000F0BFFCC6480168BC48006800F084
:1029B000F1FF00E00EE01590C1480168159801F0A4
:1029C00045F8C249169001F099F801461790062083
:1029D00000F0A8FCBE4800781E2190FBF1F201FB3C
:1029E000120000287ED1BB48006880F48070B9498D
:1029F0000860B9480088119001F078FA4FF08B41D7
:102A0000129001F0ADF8139001F0A7FA4FF0663282
:102A1000B24BCDE9140101F088F9CDE9160101F0BE
:102A2000AFFAAF490860AC484088119001F05EFAF7
:102A30004FF08B41129001F093F8139001F08DFA52
:102A40004FF06632A54BCDE9140101F06EF9CDE9E6
:102A5000160101F095FAA24948609F4880881190BC
:102A600001F044FA4FF08B41129001F079F8139085
:102A700001F073FA4FF06632984BCDE9140101F082
:102A800054F9CDE9160101F07BFA95498860924826
:102A9000C088119001F02AFA4FF08B41129001F09A
:102AA0005FF8139001F059FA4FF066328B4BCDE985
:102AB000140101F03AF9CDE9160101F061FA8849F3
:102AC000C86085480089119001F010FA4FF08B41E1
:102AD000129001F045F8139001F03FFA4FF0663282
:102AE0007E4B00E028E0CDE9140101F01EF9CDE9AC
:102AF000160101F045FA7A4908617748408911903A
:102B000001F0F4F94FF08B41129001F029F8139085
:102B100001F023FA4FF06632704BCDE9140101F059
:102B200004F9CDE9160101F02BFA6D4948615C48C2
:102B300001786C48FFF792FB6B48007800283FD182
:102B40006A480078FF287BDA694840787F2838DCBB
:102B5000674880787F2834DC654880780F9001F0E2
:102B6000DBF90022634BCDE9100101F050F900229E
:102B70004FF08043CDE9120101F0D7F8CDE91401FF
:102B800001F0FEF917905A4840780F9001F0C4F90F
:102B90000022584BCDE9100101F039F900224FF025
:102BA0008043CDE9120101F0C0F8CDE9140101F034
:102BB000E7F91690179900F027FF002039490870AF
:102BC000F9E04B4840787F283BDD494880787F28F2
:102BD00037DC474880780F9001F09EF90022454B82
:102BE000CDE9100101F013F900224FF08043CDE947
:102BF000120101F09AF8CDE9140101F0C1F9179022
:102C00003B484078C0F1FF000F9001F074F90022BA
:102C1000384BCDE9100101F0FAF800224FF0804363
:102C2000CDE9120101F081F8CDE9140101F0A8F914
:102C30001690179900F0E8FE01201A490870BAE0D2
:102C4000A8E02B4840787F286BDC294880787F28D3
:102C500067DD27488078C0F1FF000F9001F04BF945
:102C60000022244BCDE9100101F0D1F800224FF0F1
:102C70008043CDE9120101F058F8CDE9140101F0CB
:102C80007FF917901A4840780F9001F045F900221B
:102C9000184BCDE9100101F0BAF82DE04C000020EE
:102CA00029000020280000202C00002084010020A2
:102CB000BC000020640000206800002054000020B8
:102CC00050000020000048424800002000401C4600
:102CD0003C0000200C1801406402002066660A4097
:102CE0004C020020003801402B0000203D00002055
:102CF0004000002000C05F4000224FF08043CDE93B
:102D0000120101F012F8CDE9140101F039F9169021
:102D1000179900F079FE0220874908704BE061E0C6
:102D2000FFE786488078C0F1FF000F9001F0E3F8DC
:102D30000022834BCDE9100101F069F800224FF029
:102D40008043CDE9120100F0F0FFCDE9140101F05C
:102D500017F9179079484078C0F1FF000F9001F003
:102D6000CAF80022764BCDE9100101F050F800229C
:102D70004FF08043CDE9120100F0D7FFCDE91401F7
:102D800001F0FEF81690179900F03EFE03206A4904
:102D9000087010E00021084600F036FE082069495E
:102DA0000860802068490860402008602020086092
:102DB00004206149087065480088401C6349088008
:102DC00063480078401C6249087062480078FF2818
:102DD00004DA60480078401C5E49087001215E48B2
:102DE000FFF7FCF819B000BD10B540F225515B4863
:102DF000FFF7B8FA28B35948FFF734FA5849087072
:102E00005848006880F4805056490860544800785B
:102E1000FF2802D05448007880B1514800784749D3
:102E2000514A1278885450480078401C4E49087026
:102E300008460078032801D1002008700020454989
:102E4000087010BD10B5012440F225514748FFF726
:102E500089FA00286FD04548FFF704FAC4B2302C35
:102E600007D14349084600F0CFFD002032490870E1
:102E700061E0312C08D14FF07A513E4800F0C4FD9A
:102E800001202D49087056E0322C08D14FF07A51BC
:102E9000394800F0B9FD0220274908704BE0332C77
:102EA00008D14FF07A51084600F0AEFD03202249C8
:102EB000087040E0342C11D10021084600F0A4FD38
:102EC00008202049086080201F49086040200860D1
:102ED000202008600420184908702CE0352C14D1FB
:102EE0000020264908700021084600F08DFD0820CA
:102EF00014490860802014490860402008602020A0
:102F0000086004200C49087015E0362C13D101200C
:102F10001A4908700021084600F076FD082009498A
:102F20000860802008490860402008602020086070
:102F300004200149087010BD280000204000002036
:102F400000C05F40140C0140141401403A000020FE
:102F50003C0000203D0000200010004000480040E0
:102F60003F0000200C1801403400002000380140D0
:102F7000CDCC4C3E5C8F423E9A99993E2B0000206E
:102F800008B54FF4A060FDF7DFF927208DF80000A9
:102F900001208DF801008DF802008DF803006846CD
:102FA000FDF7D7F94FF4A060FDF7CEF925208DF895
:102FB000000001208DF801008DF802008DF803005B
:102FC0006846FDF7C6F94FF4E060FDF7BDF936201D
:102FD0008DF8000000208DF8010003208DF802001C
:102FE00001208DF803006846FDF7B3F908BD000025
:102FF00000B585B001211020FEF782F84FF4805013
:10300000ADF8000010208DF8030003208DF80200B9
:1030100069465148FDF7B8FD01210820FEF770F818
:1030200001218804FEF779F84FF48060ADF80000C4
:1030300018208DF8030003208DF8020069464748E8
:10304000FDF7A2FD4FF40060ADF8000004208DF8FC
:10305000030069464148FDF797FD4FF4E1300190C8
:103060000020ADF80800ADF80A00ADF80C00ADF88E
:1030700010000C20ADF80E0001A93948FEF7F5FF4D
:10308000012240F225513648FFF787F801213448E4
:10309000FFF777F805B000BD70B504460D46294628
:1030A0002046FFF7DBF800BF80212046FFF744F9F8
:1030B0000028F9D070BD70B506460C46002500BF4B
:1030C000615D3046FFF7E8FF6D1C605D0028F7D1B9
:1030D00000BF40213046FFF72FF90028F9D070BD1E
:1030E0002DE9F04105460C46260AE7B2314628464E
:1030F000FFF7B4F800BF80212846FFF71DF900282C
:10310000F9D039462846FFF7A9F800BF80212846A4
:10311000FFF712F90028F9D0BDE8F08170B5044638
:103120000D46E1B20E48FFF799F800BF80210C4828
:10313000FFF702F90028F9D0204670BD10B504460B
:1031400000BF20210648FFF7F7F80028F9D004480F
:10315000FFF788F810BD000000100140000C01408E
:103160000048004000B585B001210420FDF7C8FFEC
:1031700001218803FDF7C4FF4FF40070ADF8100083
:1031800018208DF8130003208DF8120004A91648AA
:10319000FDF7FAFC4FF48060ADF8100004208DF8C4
:1031A000130004A91048FDF7EFFC4FF416500090EF
:1031B0000020ADF80400ADF80600ADF80800ADF849
:1031C0000C000C20ADF80A0069460848FEF74DFFD8
:1031D000012240F225510548FEF7DFFF0121034897
:1031E000FEF7CFFF05B000BD0008014000380140E8
:1031F00008B501211420FDF783FF4FF41060ADF8EE
:10320000000018208DF8030003208DF802006946A5
:103210008B48FDF7B9FC4FF47070ADF80000182032
:103220008DF8030003208DF8020069468548FDF7FC
:10323000ABFC08BD00B587B001214FF42050FDF76D
:103240005FFF44F61F60ADF814004720ADF8100092
:103250000020ADF81600ADF812008DF8180004A992
:103260007948FEF785F86020ADF800000120ADF840
:1032700002000020ADF8040040F2DC50ADF806007A
:103280000020ADF80800ADF80A004FF48070ADF8EA
:103290000C000020ADF80E0069466B48FEF7A5F85B
:1032A00008216948FEF7F0FC69466748FEF777F9A0
:1032B00008216548FEF707FD01216348FEF7B4FBCE
:1032C00001216148FEF7BCFB04A96048FEF750F8F5
:1032D00069465E48FEF789F808215C48FEF7D4FC91
:1032E00069465A48FEF7C3F808215848FEF7D5FC4E
:1032F00069465648FEF708F908215448FEF7DAFCFB
:1033000069465248FEF74BF908215048FEF7DBFCAE
:1033100001214E48FEF788FB01214C48FEF790FB47
:1033200007B000BD70B504460D460021284600F0E8
:1033300043FE00D200254649284600F047FE00D251
:10334000434D072C5BD2DFE804F05A040D161F280A
:103350004100284600F0EDFD86B231463B48FEF7BD
:10336000FBFD4CE0284600F0E4FD86B231463748CC
:10337000FEF7F4FD43E0284600F0DBFD86B231465F
:103380003248FEF7EDFD3AE0284600F0D2FD86B265
:1033900031462E48FEF7E6FD31E0284600F0C9FD33
:1033A00086B231462948FEF7D7FD284600F0C1FD18
:1033B00086B231462548FEF7D3FD284600F0B9FD18
:1033C00086B231462048FEF7C7FD18E0284600F0D7
:1033D000B0FD86B231461D48FEF7C0FD284600F01C
:1033E000A8FD86B231461948FEF7BCFD284600F01C
:1033F000A0FD86B231461448FEF7B4FD00BF00BF01
:1034000070BD10B5FFF7F4FEFFF714FF0021012097
:10341000FFF788FF00210220FFF784FF002103202F
:10342000FFF780FF00210420FFF77CFF002105202B
:10343000FFF778FF00210620FFF774FF10BD0000A2
:103440000008014000100140002C01400034014000
:1034500000409C4608B501214020FDF751FE4FF485
:103460008070ADF8000010208DF8030003208DF867
:10347000020069460A48FDF787FB4FF48050ADF81B
:10348000000069460648FDF77FFB4FF48071044851
:10349000FDF729FC4FF480510148FDF722FC08BDDF
:1034A000001801400EB501211020FDF736FE42F252
:1034B0000F70ADF804004720ADF8000069460A48D7
:1034C000FDF756FF01210848FEF774FD0122114661
:1034D0000548FEF7C4FA01210348FEF7A5FA0EBD20
:1034E00010B5FFF7DFFF10BD0010004008B5012147
:1034F0000C20FDF705FEC020ADF8000048208DF837
:10350000030069463C48FDF73FFB0320ADF800008F
:1035100048208DF8030069463848FDF735FB08BDA3
:1035200000B587B001210C20FDF7F7FD3448FDF709
:103530004BFE344800684FF6FF7101EA8000ADF899
:1035400014000020ADF81000ADF812008DF818003E
:1035500004A92B48FDF70CFF00231A460321284835
:10356000FEF715FB0620ADF80C0001A8FEF73FFAA8
:1035700001A92348FEF78FF947F230502049243142
:10358000088001211E48FEF74FFA1F48FDF71CFE78
:103590001C4800684FF6FF7101EA8000ADF8140086
:1035A0000020ADF81000ADF812008DF8180004A945
:1035B0001548FDF7DDFE00231A4603211248FEF7E9
:1035C000E6FA0620ADF80C0001A8FEF710FA01A9F2
:1035D0000D48FEF760F947F230500B49243108805E
:1035E00001210948FEF720FA07B000BD10B5FFF72A
:1035F0007DFFFFF795FF10BD000C01400008014062
:103600000008004058000020000C004008B50121CF
:103610001020FDF775FD3F20ADF8000000208DF86B
:10362000030069464E48FDF7AFFA08BD00B591B0FA
:1036300001210846FDF757FD01214802FDF760FD15
:103640004848FDF717F94848069048480790002079
:1036500008900620099000200A9080200B904000DE
:103660000C9080000D9020200E9000020F90002002
:10367000109006A93B48FDF79FF901213948FDF755
:10368000C6F90020019001208DF808008DF809008E
:103690004FF4602003900020049006208DF8140061
:1036A00001A931484C38FCF7E4FE4FF44040FDF7E7
:1036B0008BFC052301220A212B484C38FCF771FFB3
:1036C000052302220B2128484C38FCF76AFF05230A
:1036D00003220C2124484C38FCF763FF0523042205
:1036E0000D2121484C38FCF75CFF05231A460E21BA
:1036F0001D484C38FCF755FF052306220F211A48B8
:103700004C38FCF74EFF012117484C38FCF7E8FE17
:10371000012115484C38FCF7D8FE13484C38FCF70B
:10372000F6FE00BF10484C38FCF7F6FE0028F9D131
:103730000D484C38FCF7FAFE00BF0B484C38FCF73C
:10374000FAFE0028F9D1012107484C38FCF7FDFEAC
:1037500011B000BD10B5FFF759FFFFF767FF10BDAF
:1037600000100140080002404C2401406402002087
:1037700008B501214020FDF7C3FC4FF40040ADF82F
:10378000000010208DF8030003208DF80200694628
:103790000448FDF7F9F94FF400410248FDF7A3FA98
:1037A00008BD00000018014010B50446142000F0C8
:1037B00027FD60602060206808B9002010BD00204F
:1037C000216808610120F9E710B5044607E0206888
:1037D00000696060206800F0EBFC60682060206891
:1037E0000028F4D1012010BD70B504462068606047
:1037F0002068056900202168086104E02E462D69D3
:10380000304600F0D5FC002DF8D1012070BD03B585
:10381000DDE90001884201D101200CBD0020FCE758
:1038200003B50022009901E0521C09690198884201
:10383000FAD1D0B20CBD2DE9F04106460F46142056
:1038400000F0DEFC054615B90020BDE8F08100243B
:1038500002E0385D2855641C0F2CFADB002028613B
:103860007068056175600120EFE770B50446D4E922
:103870000001884201D1002070BD206805692869D7
:10388000216808616068A84201D12068606028460C
:1038900000F08EFC0120EFE703B50098016900E01D
:1038A00009690029FCD101200CBD10B50348FFF7C0
:1038B0007BFF08B9002010BD0120FCE75C00002060
:1038C00008B501212920FDF71BFC01215148FDF716
:1038D0002CFAE020ADF8000010208DF80300032042
:1038E0008DF8020069464C48FDF74EF90820ADF806
:1038F000000010208DF8030003208DF802006946B7
:103900004648FDF741F908204449143108608020F9
:10391000414914310860402008602020086008BD3B
:103920002DE9F04704460D462946204600F0E3F80D
:103930003B490860084601683A48006800F086F88C
:1039400038490860384801683548006800F0D0F808
:103950008046002100F0D2F8064632480168002077
:1039600000F0CCF880462E480168304800F0C6F8D8
:103970008146414600F06AF80746314600F066F895
:103980002B490860264800682749086028480068D5
:10399000BDE8F0872DE9F04704460D46294620464C
:1039A00000F0A9F823490860084601682248006829
:1039B00000F04CF820490860204801681D48006864
:1039C00000F096F88046002100F098F806461A4864
:1039D0000168002000F092F88046164801681348FC
:1039E00000F08CF88146414600F030F80746314639
:1039F00000F02CF8124908600E4800680F49086072
:103A00000F480068BDE8F0870E4A10600E4A11604A
:103A1000704700000002300000140140000C01401B
:103A20006C00002074000020780000200000C040DE
:103A3000700000207C00002084000020880000200E
:103A4000800000206400002068000020F0B480EABC
:103A50000102D40F4200B2EB410F02D202460846E7
:103A600011464A0042D0C30DDDB2C1F3C752AD1AB0
:103A7000202D35DAC1F3160141F4000204B152429F
:103A8000C5F1200602FA06F12A411044B3EBD05FDB
:103A900023D0C4B1012DA0EBC35009DCF0BC4FF022
:103AA000004202EAC352DBB200F5000000F0C2BAE5
:103AB000400000F1807000EBC350A0F1807040EA3C
:103AC000D170490009E0490841EAC071A0EBC35038
:103AD00000F50000400800EBC350F0BC00F0A1BAB4
:103AE0006142012202EB4101001BF6E7F0BC704786
:103AF00081F00041AAE780F00040A7E780EA0102D8
:103B000010B502F00043400022D04A001FD0010E41
:103B100001EB1261C0F35600C2F3560240F40000FC
:103B200042F40002A0FB022000047F39140400D0FC
:103B3000401C50EA124001D44000491EC2B20C069B
:103B400004EBD010401C4008802A02D003E0002083
:103B500010BD20F00100002900DA0020184310BD3C
:103B600030B480EA010202F0004530F0004221F05A
:103B7000004013D090B1C30DD40DC2F31601C0F3B1
:103B80001600E41A41F4000140F400027D34914231
:103B900001D3641C00E04900002C02DA30BC002094
:103BA00070474FF400000023914201D3891A034368
:103BB00040084FEA4101F7D151B1914202D14FF093
:103BC000004105E002D24FF0010101E06FF0010178
:103BD00003EBC450284430BC00F023BA2DE9FE4F5B
:103BE000804681EA0300C00F0C46009021F000419E
:103BF00023F00045B8EB0200A94105D2404621461A
:103C000090461C460B46024623F00040104347D026
:103C1000270DC7F30A00C3F30A510290401A01901E
:103C200040286BDAC3F3130040F4801B00989246DF
:103C300020B10023D2EB030A63EB0B0B019859462A
:103C4000C0F14002504600F0CBF906460D46504602
:103C50005946019A00F0D3F910EB080061410024A5
:103C600087EA115284EAE7731A4340D0009A62B39C
:103C7000019A012A4FEA075215DC001B61EB020191
:103C80004FF0004202EA0752CDE90042001C41F524
:103C9000801132462B4600F00AFA03B0BDE8F08FDF
:103CA00040462146F9E7001B61EB0201001C41F58B
:103CB000801300185B412018A2F5001747EB0301A1
:103CC00040EAD570B6196D4111E06D084FEA36062D
:103CD00045EAC0754FEA0752001B61EB0201001C68
:103CE00041F5801149084FEA300000195141324630
:103CF0002B4603B0BDE8F04F00F0CAB9009801228E
:103D000040000023D0EB020263EBE07300982146F1
:103D10004FEAE074B8EB000061EB0401E9E783F0DF
:103D200000435BE781F0004158E72DE9FE4F81EA4F
:103D3000030404F0004421F0004100944FF0000B14
:103D400023F0004350EA01045ED052EA03045BD042
:103D5000C3F30A54C1F30A552C44A4F2F33401947A
:103D6000A0FB0254C1F3130141F48011C3F3130308
:103D700043F4801301FB024400FB034E840A970ABC
:103D800044EA815447EA8357A4FB076802958D0AE9
:103D900005FB07854FEA932C04FB0C542705029D75
:103DA0004FEA065847EA1637B5EB08056EEB070CE5
:103DB000870E920E47EA811742EA8312A7FB02019F
:103DC000B6EB0B0164EB00042B0D43EA0C335E18D9
:103DD00044EB1C50DA465146E7FB0201C5F31304DD
:103DE0004FEA0B3343EA14534FEA0432019C43EA8F
:103DF0000603A4F10C040294009CCDE900B400F089
:103E000056F903B0BDE8F08F00200146F9E72DE92F
:103E1000F04D81EA030404F0004B21F00045144604
:103E20004FF0000A23F0004150EA050220D054EA86
:103E300001021DD0C5F30A570246C5F31303C1F3AF
:103E40001300C1F30A5640F4801543F48013A7EB26
:103E50000608101BD64608F2FD3873EB050002D3A6
:103E600008F1010801E092185B41B8F1000F03DA94
:103E700000200146BDE8F08D00204FF48011064679
:103E800084460EE0171B73EB050705D3121B63EB8B
:103E9000050306434CEA010C49084FEA300092182A
:103EA0005B4150EA0107EDD152EA030012D082EAE9
:103EB000040083EA0501084305D0101BAB4106D27C
:103EC0000122002306E000224FF0004302E06FF0E1
:103ED000010253101AEB06004CEB085110EB0A00DC
:103EE00041EB0B01BDE8F04D00F0D2B89623002263
:103EF000114600F09FB80EB5C10F80EAE07008448B
:103F0000CA07002140F233438DE80E000A460B46F3
:103F100000F0CDF803B000BD0EB540F23341029180
:103F20000021CDE900110A460B4600F0C0F803B0AD
:103F300000BD20F00040C10DC0F3160040F40000A9
:103F40007F2901DA00207047962903DCC1F1960130
:103F5000C840704796398840704700F0004230F002
:103F600000400AD0C10D01F56071C0F3160042EAAD
:103F70000151C208400711437047002001467047B5
:103F800001F0004330B421F0004150EA010206D0B4
:103F90000A0DA2F56072C1F31301002A02DC30BCE5
:103FA00000207047440F44EAC104C100E01830BC4F
:103FB00000EBC25000F035B8002801DBC0F1004032
:103FC000002901DBC1F1004181427047002801DB7B
:103FD000C0F10040002901DBC1F100418842704777
:103FE000202A04DB203A00FA02F1002070479140B9
:103FF000C2F1200320FA03F3194390407047202AAE
:1040000006DBCB17203A41FA02F043EAE07306E000
:1040100041FA02F3D040C2F1200291400843194610
:1040200070470029A8BF7047401C490008BF20F016
:104030000100704710B4B0FA80FC00FA0CF050EAAE
:10404000010404BF10BC704749B1CCF1200421FA2F
:1040500004F411FA0CF118BF012121430843A3EB2A
:104060000C01CB1D4FEA00614FEA102042BF002037
:1040700010BC704700EBC35010440029A4BF10BC13
:104080007047401C490008BF20F0010010BC704779
:1040900010B5141E73F1000408DA401C41F1000150
:1040A00092185B411A4301D120F0010010BD2DE9A7
:1040B000F04D92469B4611B1B1FA81F202E0B0FA9E
:1040C00080F220329046FFF78BFF04460F4640EA0D
:1040D0000A0041EA0B0153465A46084313D01146E1
:1040E00053EA010019D0C8F14002504600F040F8F0
:1040F00005460E46504659464246FFF771FF0843B3
:1041000005D0012004E020463946BDE8F08D0020AE
:10411000054346EAE0762C4337430A986305E40AF0
:10412000A0EB08000022FD0A44EA47540A3002D5F9
:1041300000200146E9E7010510196941DDE908455C
:1041400000196941BDE8F04DA2E70000064C074D9B
:1041500006E0E06840F0010394E807009847103457
:10416000AC42F6D3FBF7E8FF6C4200088C42000833
:10417000202A04DB203A21FA02F00021704721FABC
:1041800002F3D040C2F12002914008431946704723
:1041900002E008C8121F08C1002AFAD17047704710
:1041A000002001E001C1121F002AFBD1704700006E
:1041B00010B5002821D0114B0022001F196803E020
:1041C000814203D80A4649680029F9D152B11368DF
:1041D000841A9C4204D1006818441060104602E022
:1041E000506000E0186039B102680B1A934203D1A5
:1041F0000B681A4402604968416010BD8C000020C1
:10420000F0B50B30154D20F007010024144A0FE0E3
:1042100003688B420BD38B4205D95E1A431847685B
:10422000C3E9006700E04368136002C004E0021DB8
:1042300010680028ECD12046002802D1286808B177
:104240000020F0BD064A07481060074A121A22F003
:104250000702C0E9002401202860D7E79000002071
:104260008C00002074020020708200208C42000824
:104270000000002094000000904100082043000846
:1042800094000020DC850000A041000800A24A0440
:1042900000000000000000000102030406070809F6
:1042A00000000000010203040102030406070809DC
:1042B00002040608040400000000000000000000E2
:1042C00000000000000000000000000000000000EE
:1042D00000000000000000000000000000000000DE
:1042E00000000000983A00000000000000000000FC
:1042F00000000000000000000000000000000000BE
:1043000000000000000000000000000000000000AD
:10431000000000000000000000000000000000009D
:0400000508000131BD
:00000001FF
