:020000040800F2
:10000000E8840020450100084D0100084F01000868
:1000100051010008530100085501000800000000CC
:100020000000000000000000000000005701000870
:1000300059010008000000005B0100085D01000894
:100040005F0100085F0100085F0100085F01000810
:100050005F0100085F0100085F0100085F01000800
:100060005F0100085F0100085F0100085F010008F0
:100070005F0100085F0100085F0100085F010008E0
:100080005F0100085F0100085F0100085F010008D0
:100090005F0100085F0100085F0100085F010008C0
:1000A0005F0100085F0100085F0100085F010008B0
:1000B0005F0100085F0100085F0100085F010008A0
:1000C0005F0100085F0100085F0100085F01000890
:1000D0005F0100087F2C00085F010008232C000846
:1000E0005F0100085F0100085F0100085F01000870
:1000F0005F0100085F0100085F0100085F01000860
:100100005F0100085F0100085F0100085F0100084F
:100110005F0100085F010008292400085F01000852
:100120005F0100085F0100085F0100085F0100082F
:10013000DFF80CD003F0B8FF00480047ED230008BB
:10014000E88400200648804706480047FEE7FEE7AF
:10015000FEE7FEE7FEE7FEE7FEE7FEE7FEE7FEE777
:1001600047020008310100080CB500200190009002
:100170006C48006840F480306A49086000BF6948F4
:10018000006800F4003000900198401C0190009835
:1001900018B90198B0F5A06FF1D16248006800F479
:1001A000003010B10120009001E000200090009884
:1001B000012843D15C48006840F010005A490860AB
:1001C0000846006820F0030008600846006840F018
:1001D0000200086053484068524948600846406839
:1001E00048600846406840F48060486008464068BF
:1001F00020F47C1048600846406840F4E8104860ED
:100200000846006840F08070086000BF45480068FC
:1002100000F000700028F9D04248406820F0030048
:10022000404948600846406840F00200486000BF0E
:100230003C48406800F00C000828F9D10CBD10B50E
:10024000FFF792FF10BD10B53648006840F001007E
:1002500034490860084640683449084031494860DC
:1002600008460068324908402E4908600846006880
:1002700020F4802008600846406820F4FE004860B2
:100280004FF41F008860FFF7DAFF4FF00060294944
:10029000086010BD10B5002100200022214B5B68D2
:1002A00003F00C0121B1042906D0082928D107E068
:1002B000214B224C236027E01F4B204C236023E07E
:1002C000184B5B6803F47010164B5B6803F48032C4
:1002D000022303EB904022B9194B4343174C236090
:1002E0000DE0104B5B6803F4003323B1144B434320
:1002F000124C236003E0104B4343104C236003E097
:100300000D4B0E4C236000BF00BF064B5B68C3F370
:1003100003130C4CE15C094B1B68CB40074C23607A
:1003200010BD000000100240002002400000FFF855
:10033000FFFFF6FE08ED00E000127A00000000204A
:1003400000093D000400002031490143314A116099
:10035000704770B5002100230F22C47804B32D4CE0
:10036000246804F4E064C4F5E064210AC1F10403E4
:10037000CA40447804FA03F1847814402143090107
:10038000254C0678A155047804F01F050124AC40E3
:1003900005786D11AD0005F1E025C5F8004109E0D3
:1003A000047804F01F050124AC401C4D067876113A
:1003B00045F8264070BD1A4A0A400243154B1B1FE0
:1003C0001A60704739B1134A121D12680243114B6B
:1003D0001B1D1A6006E00F4A121D126882430D4B66
:1003E0001B1D1A607047042808D14FF0E0210969ED
:1003F00041F004014FF0E022116107E04FF0E021ED
:10040000096921F004014FF0E022116170470000FA
:100410000000FA050CED00E000E400E080E100E0FF
:1004200080FFFF1F10B50446FA48844208D101211D
:10043000401500F07FFE0021601500F07BFE17E004
:10044000F548844208D10121001500F073FE002117
:10045000201500F06FFE0BE0F048844208D1012126
:10046000C80300F067FE00214FF4004000F062FE78
:1004700010BD30B50246002000235068E84C2040F3
:100480000D790C6844EA0524204350609068E54CDF
:100490002040D1E902542C434D7944EA45042043DD
:1004A0009060D06A20F470000C7C641EE4B2234398
:1004B00040EA0350D06230BD0021016001714171FA
:1004C0008160C16001210174704721B1826842F0EE
:1004D0000102826003E0826822F0010282607047BC
:1004E00021B1826842F48072826003E0826822F463
:1004F00080728260704710B50023CBB21AB1446895
:100500001C43446002E044689C43446010BD816821
:1005100041F0080181607047014600208A6802F0BE
:1005200008020AB1012000E000207047816841F014
:10053000040181607047014600208A6802F00402CD
:100540000AB1012000E00020704721B1826842F426
:10055000A002826003E0826822F4A00282607047F9
:10056000014600208A6802F480020AB1012000E0FE
:100570000020704710B50A4600210023416821F48D
:100580006041531E41EA4331416010BD21B14268D0
:1005900042F40062426003E0426822F4006242607A
:1005A0007047F0B504460D4600200021092D11DDED
:1005B000E068A5F10A0606EB4607072606FA07F1EA
:1005C0008843A5F10A0606EB460603FA06F108433E
:1005D000E0600CE0206905EB4507072606FA07F105
:1005E000884305EB450603FA06F108432061072A14
:1005F0000FDA606B561E06EB86071F2606FA07F118
:100600008843561E06EB860605FA06F1084360632A
:1006100022E00D2A0FDA206BD61F06EB86071F2675
:1006200006FA07F18843D61F06EB860605FA06F19F
:100630000843206310E0E06AA2F10D0606EB86078E
:100640001F2606FA07F18843A2F10D0606EB86067F
:1006500005FA06F10843E062F0BD21B1826842F478
:100660008012826003E0826822F480128260704708
:100670000146C86C80B2704766484C3000687047CD
:1006800021B1426842F48062426003E0426822F491
:1006900080624260704721B1426842F480524260F9
:1006A00003E0426822F48052426070470A4600210B
:1006B000816821F4E04111438160704721B1826873
:1006C00042F40042826003E0826822F400428260C9
:1006D000704721B1826842F40212826003E08268AE
:1006E00022F4021282607047014600208A6802F4F8
:1006F00000120AB1012000E000207047F0B5044666
:100700001546002000220026092911DDE068A1F12C
:100710000A0707EB470C072707FA0CF29043A1F1F1
:100720000A0707EB470703FA07F21043E0600CE003
:10073000206901EB410C072707FA0CF2904301EB0B
:10074000410703FA07F210432061A06BC0F3015682
:10075000EF1C06F1010CA7EB0C0707EB870C1F271A
:1007600007FA0CF29043EF1C06F1010CA7EB0C0703
:1007700007EB870701FA07F21043A063F0BD10B53D
:100780000A4600210023816B21F44011531E41EAE7
:100790000351816310BD08B5002300930090009BB6
:1007A0000B440093009B1A6008BD08B50246002068
:1007B0000090009201F12800009B184400900098DE
:1007C000006880B208BD0A4600214168164B1940F6
:1007D0001143416070474162826270470A460021BE
:1007E000416821F01F0111434160704740B1094940
:1007F0000831096841F40001064A0832116007E037
:1008000004490831096821F40001024A08321160E4
:10081000704700000024014000280140003C0140D6
:10082000FFFEF0FFFDF7F1FFFFFD3FFF0246002056
:1008300013680B400BB1012000E000207047CA4351
:100840000260704770B502460020002300240B129E
:100850005568CEB205EA060415681D4015B10CB105
:10086000012000E0002070BD00220A12D343036083
:100870007047000001684FF6FE72114001600021D0
:10088000016041608160C1608D49884208D18C4916
:100890000839496841F00F01894A083A51608AE0F5
:1008A00087491431884208D185490839496841F09F
:1008B000F001834A083A51607DE08149283188423D
:1008C00008D17F490839496841F470617C4A083A87
:1008D000516070E07A493C31884208D17849083942
:1008E000496841F47041764A083A516063E07449BE
:1008F0005031884208D172490839496841F4702161
:100900006F4A083A516056E06D496431884208D117
:100910006B490839496841F47001694A083A5160E5
:1009200049E067497831884208D165490839496802
:1009300041F07061624A083A51603CE06149884286
:1009400006D1011F096841F00F01021F116032E05A
:100950005C491431884208D15A49091F096841F09D
:10096000F001584A121F116025E05649283188428B
:1009700008D15449091F096841F47061514A121F96
:10098000116018E04F493C31884208D14D49091F98
:10099000096841F470414B4A121F11600BE049494C
:1009A0005031884207D14749091F096841F4702135
:1009B000444A121F1160704710B50022026847F6C2
:1009C000F0739A430C6A8B6823430C6923434C6988
:1009D00023438C692343CC6923434C6A23438C6AA9
:1009E00023431A430260CB6843600B6883604B6803
:1009F000C36010BD0021016041608160C160016180
:100A000041618161C161016241628162704721B1CE
:100A1000026842F00102026004E002684FF6FE73D1
:100A20001A40026070471AB103680B43036002E08A
:100A300003688B4303607047416070470146486814
:100A400080B2704701460020002201F080531BB1A4
:100A50001C4B083B1A6802E0194B083B1A6802EA73
:100A600001030BB1012000E00020704700F080512D
:100A700019B11449091F086002E01149083948609A
:100A8000704701460020002201F080531BB10D4B3E
:100A9000083B1A6802E00A4B083B1A6802EA0103A5
:100AA0000BB1012000E00020704700F0805119B127
:100AB0000449091F086002E001490839486070478D
:100AC000080002400804024010B50446CC488442A5
:100AD00008D10121042000F02DFB0021042000F0AA
:100AE00029FB46E0C748844208D10121082000F0D4
:100AF00021FB0021082000F01DFB3AE0C24884429F
:100B000008D10121102000F015FB0021102000F079
:100B100011FB2EE0BD48844208D10121202000F0C5
:100B200009FB0021202000F005FB22E0B8488442A8
:100B300008D10121402000F0FDFA0021402000F002
:100B4000F9FA16E0B348844208D10121802000F070
:100B5000F1FA0021802000F0EDFA0AE0AE4884426C
:100B600007D10121801500F0E5FA0021A01500F061
:100B7000E1FA10BD10B50121084600F0DBFA0021B2
:100B8000012000F0D7FA10BD2DE9F0410246002502
:100B90000026002000230024002791F803C00CF059
:100BA0000F0591F803C00CF0100CBCF1000F03D03E
:100BB00091F802C04CEA050591F800C0BCF1000FA5
:100BC00031D0146800202BE04FF0010C0CFA00F338
:100BD000B1F800C00CEA03069E4220D183004FF01A
:100BE0000F0C0CFA03F7BC4305FA03FC4CEA0404AF
:100BF00091F803C0BCF1280F06D14FF0010C0CFA9C
:100C000000FCC2F814C00AE091F803C0BCF1480F20
:100C100005D14FF0010C0CFA00FCC2F810C0401CCA
:100C20000828D1D31460B1F800C0BCF1FF0F34DD47
:100C3000546800202EE000F1080C4FF0010808FA7B
:100C40000CF3B1F800C00CEA03069E4221D18300E8
:100C50004FF00F0C0CFA03F7BC4305FA03FC4CEA07
:100C6000040491F803C0BCF1280F05D100F1080C71
:100C700008FA0CF8C2F8148091F803C0BCF1480FD0
:100C800007D100F1080C4FF0010808FA0CF8C2F87F
:100C90001080401C0828CED35460BDE8F0814FF688
:100CA000FF710180022181700421C17070470246EA
:100CB000002093680B400BB1012000E0002070473A
:100CC0000146886880B2704702460020D3680B4016
:100CD0000BB1012000E0002070470146C86880B2D7
:100CE000704701617047416170470AB1016100E0DE
:100CF00041617047C16070474FF480320A4382619E
:100D00008161826182698269704702460020434B9B
:100D100018684FF68073184040EA021008433F4BB2
:100D2000186070473E49C8617047F0B50A46002315
:100D300000240021002500F00046B6F1004F02D14A
:100D4000364EF16901E0354E7168C0F3034583B258
:100D500000F44016B6F5401F08D121F070612F4E07
:100D6000766826F070662D4F7E6012E000F48016E3
:100D7000B6F5801F06D1032606FA05F4A14341F01B
:100D8000706106E0460D360103FA06F6B14341F004
:100D9000706122B1460D360103FA06F6314300F0C8
:100DA0000046B6F1004F02D11C4EF16101E01B4E2E
:100DB0007160F0BD30B500228B071C0F0F2303FAC2
:100DC00004F2164B08338C1053F824309343134C21
:100DD00008348D1044F8253023468C1053F8243005
:100DE0008C07240F00FA04F423430C4C08348D10B4
:100DF00044F8253030BD0A49DC31086070470000F6
:100E000000080140000C01400010014000140140A6
:100E100000180140001C014000200140000001407A
:100E200000002042DF48006840F00100DD49086012
:100E300008464068DC490840DA49486008460068CE
:100E4000DA490840D74908600846006820F4802045
:100E500008600846406820F4FE0048604FF41F0018
:100E600088607047CF49096821F48031CD4A11600C
:100E70001146096821F480211160B0F5803F03D04C
:100E8000B0F5802F0ED106E0C649096841F48031E3
:100E9000C44A116007E0C349096841F4A021C14A6E
:100EA000116000E000BF00BF704710B5014600228E
:100EB000002300204A11012A02D1BA4C236806E01F
:100EC000022A02D1B74C236A01E0B64C636A01F0F2
:100ED0001F02012494401C400CB1012000E00020BE
:100EE00010BD38B5002000900024002500BF31203F
:100EF000FFF7DBFF05460098401C00900098B0F516
:100F0000A06F01D0002DF2D03120FFF7CEFF08B145
:100F1000012400E00024204638BD01460020A14AFB
:100F2000106820F0F80040EAC10010607047A04946
:100F300008607047024600209A4B586820F47C10E5
:100F400042EA01031843974B586070479849086676
:100F5000704701460020934A506820F00300084380
:100F6000506070478F48406800F00C0070470146A1
:100F700000208C4A506820F0F00008435060704711
:100F800001460020874A506820F4E0600843506022
:100F9000704701460020834A506820F4605040EAC0
:100FA000C1005060704729B17E4A527A02437D4B9E
:100FB0005A7204E07B4A527A82437A4B5A727047E3
:100FC0007B49D8310860704701460020754A506857
:100FD00020F440400843506070470021714A20329D
:100FE0001170704A82F82010012802D004280AD11A
:100FF00004E001216B4A2032117005E00521694AA5
:101000002032117000E000BF00BF704769490860DE
:1010100070476449096A0143624A11627047654931
:1010200044390860704730B50021002200240023B5
:101030005C4D6D6805F00C0121B1042905D008292B
:1010400023D105E05C4D056022E05B4D05601FE0AB
:10105000544D6D6805F47012524D6D6805F480347E
:10106000022505EB92421CB9544D554305600BE037
:101070004C4D6D6805F400351DB1504D554305606C
:1010800002E04D4D5543056002E04B4D056000BF49
:1010900000BF444D6D6805F0F0010909484D6B5CD7
:1010A0000568DD4045603F4D6D6805F4E061090A63
:1010B000434D6B5C4568DD4085603A4D6D6805F4D5
:1010C0006051C90A3E4D6B5C4568DD40C560354DD9
:1010D0006D6805F44041890B3A4D6B5CC568B5FB02
:1010E000F3F5056130BD29B12E4A526902432D4BFB
:1010F0005A6104E02B4A526982432A4B5A61704775
:1011000029B1284A92690243264B9A6104E0254A94
:1011100092698243234B9A61704729B1214AD2696F
:101120000243204BDA6104E01E4AD26982431D4B20
:10113000DA61704729B11B4AD2680243194BDA6061
:1011400004E0184AD2688243164BDA60704729B12E
:10115000144A12690243134B1A6104E0114A1269DE
:101160008243104B1A61704712494039086070473A
:101170000F49C86470470B49C87170470948406AF5
:1011800040F0807007494862704701460020054AD8
:1011900092680A400AB1012000E00020704701492E
:1011A00088727047001002400000FFF8FFFFF6FE53
:1011B000000042428004424200127A0000093D00D1
:1011C000140000202400002010B50446FE4884428C
:1011D00008D10121C014FFF7ADFF0021E014FFF793
:1011E000A9FFC4E0B4F1804F08D101210846FFF700
:1011F000AEFF00210120FFF7AAFFB8E0F3488442C8
:1012000008D101210220FFF7A2FF00210220FFF7F1
:101210009EFFACE0EE48844208D101210420FFF794
:1012200096FF00210420FFF792FFA0E0E9488442E6
:1012300008D101210820FFF78AFF00210820FFF7CD
:1012400086FF94E0E448844208D101211020FFF792
:101250007EFF00211020FFF77AFF88E0DF488442FC
:1012600008D101212020FFF772FF00212020FFF785
:101270006EFF7CE0DA48844208D101214014FFF778
:1012800059FF00216014FFF755FF70E0D5488442F4
:1012900009D10121C804FFF74DFF00214FF40020C0
:1012A000FFF748FF63E0D048844209D101210805D7
:1012B000FFF740FF00214FF48010FFF73BFF56E09F
:1012C000CA48844209D101214805FFF733FF0021B4
:1012D0004FF40010FFF72EFF49E0C548844208D1C3
:1012E00001214020FFF733FF00214020FFF72FFFAF
:1012F0003DE0C048844208D101218020FFF727FF4C
:1013000000218020FFF723FF31E0BB48844208D151
:1013100001218015FFF71BFF0021A015FFF717FF24
:1013200025E0B648844209D101210804FFF702FFF5
:1013300000214FF48030FFF7FDFE18E0B0488442F2
:1013400009D101214804FFF7F5FE00214FF40030D8
:10135000FFF7F0FE0BE0AB48844208D1012188047E
:10136000FFF7E8FE00214FF48020FFF7E3FE10BDF9
:1013700000220288944B98420ED0994B98420BD091
:10138000B0F1804F08D0914B984205D0904B9842D5
:1013900002D0904B984204D14FF68F731A404B887D
:1013A0001A438D4B984207D08C4B984204D04FF68D
:1013B000FF431A40CB881A4302808B8883850B88B1
:1013C0000385814B98420BD0854B984208D08B4BBC
:1013D000984205D08A4B984202D08A4B984201D15C
:1013E0000B7A038601238382704770B500240022A4
:1013F0000023058C4FF6FE7635400584028C8388E9
:10140000048B4FF68F752C40B51E2C400D882C4355
:10141000751E2A400D892A434D882A436A4DA842E9
:101420000BD06F4DA84208D0744DA84205D0744D22
:10143000A84202D0734DA84213D14FF6F7752A4047
:101440004D892A434FF6FB752A408D882A434FF673
:10145000FF652B404FF6FF552B408D892B43CD89DF
:101460002B4383800483CD888586028470BD70B54C
:10147000002400220023058C4FF6EF7635400584CA
:10148000028C8388048B48F6FF752C404FF6FF458D
:101490002C400D884FF6FF7606EA05252C434FF6C3
:1014A000DF752A400D8906EA05152A434D8806EAAC
:1014B00005152A43444DA84202D0494DA8421DD1EA
:1014C0004FF67F752A404D894FF6FF7606EA0515DF
:1014D0002A434FF6BF752A408D8806EA05152A4330
:1014E0004FF6FF352B404FF2FF752B408D8906EAF2
:1014F00085052B43CD8906EA85052B43838004832C
:10150000CD880587028470BD70B5002400220023B9
:10151000058C4FF6FF6635400584028C8388848BEA
:101520004FF68F752C404FF6FC752C400D882C43E0
:101530004FF6FF552A400D894FF6FF7606EA05253E
:101540002A434D8806EA05252A431F4DA84202D0AA
:10155000234DA8421DD14FF2FF752A404D894FF609
:10156000FF7606EA05252A434FF6FF352A408D8887
:1015700006EA05252A434EF6FF752B404DF6FF750A
:101580002B408D8906EA05152B43CD8906EA051502
:101590002B4383808483CD888587028470BD70B59A
:1015A000002200230024058C4EF6FF76354005848A
:1015B000038C8488828B48F6FF752A404FF6FF45DE
:1015C0002A400D8820E00000002C0140000400406B
:1015D00000080040000C00400010004000140040D3
:1015E00000340140004C01400050014000540140D3
:1015F00000180040001C0040002000400040014056
:1016000000440140004801404FF6FF7606EA0525F8
:101610002A434DF6FF752B400D8906EA05352B430D
:101620004D8806EA05352B43FA4DA84202D0FA4D03
:10163000A84208D14BF6FF752C408D894FF6FF76F6
:1016400006EA85152C4384808283CD88A0F840501B
:10165000038470BD828B4FF2FF331A408283828BEA
:101660004FF6FF7303EA01231A4382837047F0B5F4
:101670000C461546002200210026078C4EF6FF7C02
:1016800007EA0C070784828B018C4FF6FF7707EA85
:10169000043640F6FF473A404FF6FF7707EA052742
:1016A0003A434FF6FF7707EA03373A43D94FB84238
:1016B0000ED0D94FB8420BD0B0F1804F08D0D74FE1
:1016C000B84205D0D64FB84202D0D64FB84206D164
:1016D0004DF6FF77394046F48057394305E047F629
:1016E000FF57394044F48057394382830184F0BD69
:1016F000828B4FF6F3731A408283828B0A43828374
:101700007047F0B50C461546002200210026078CD4
:101710004FF6FF6C07EA0C070784828B018C4FF6AB
:10172000FF7707EA04264FF60C773A404FF6FF772B
:1017300007EA03172F433A43B64FB8420ED0B64FCD
:10174000B8420BD0B0F1804F08D0B44FB84205D0AA
:10175000B34FB84202D0B34FB84206D14FF6FF574D
:10176000394046F48077394305E04FF2FF5739405E
:1017700044F48077394382830184F0BD028B4FF2B9
:10178000FF331A400283028B4FF6FF7303EA0123F3
:101790001A4302837047F0B50C461546002200211B
:1017A0000026078C4FF6EF7C07EA0C070784028BB4
:1017B000018C4FF6FF7707EA041640F6FF473A40E0
:1017C0004FF6FF7707EA03373A434FF6FF7707EA0A
:1017D00005273A438F4FB8420ED08F4FB8420BD0F7
:1017E000B0F1804F08D08D4FB84205D08C4FB84231
:1017F00002D08C4FB84206D14FF6DF77394046F021
:101800001007394305E04FF65F77394044F0100781
:10181000394302830184F0BD028B4FF6F3731A4003
:101820000283028B0A4302837047F0B50C461546CB
:1018300000220021068C4FF6FE773E400684028B84
:10184000018C4FF60C7632407E1C06EA03162E43BE
:101850003243704EB0420ED06F4EB0420BD0B0F15A
:10186000804F08D06D4EB04205D06D4EB04202D0D0
:101870006C4EB04206D14FF6FD76314044F0010681
:10188000314305E04FF6F576314044F0010631432F
:1018900002830184F0BD70B505460C465D48854263
:1018A0000ED05D4885420BD0B5F1804F08D05B4823
:1018B000854205D05A48854202D05A48854200D117
:1018C00000E000BF208850B92389A288618828469B
:1018D000FFF7ABFFE1882846FFF79EFF25E0208851
:1018E00004280AD12389A28861882846FFF753FF7C
:1018F000E1882846FFF742FF17E0208808280AD130
:101900002389A28861882846FFF7FBFEE1882846E4
:10191000FFF7EEFE09E02389A28861882846FFF7D9
:10192000A6FEE1882846FFF795FE70BD2DE9F0413F
:1019300005460C4600260127608808B9022600E00B
:101940000026A088012801D1022700E00127208875
:10195000A0B92389A28861882846FFF766FFE1883D
:101960002846FFF759FF23893A4631462846FFF7B4
:1019700012FFE1882846FFF701FF13E02389A288C0
:1019800061882846FFF707FFE1882846FFF7F6FE43
:1019900023893A4631462846FFF747FFE188284623
:1019A000FFF73AFFBDE8F0810A884B881A438B881D
:1019B0001A43CB881A430B891A434B891A438B89E4
:1019C0001A43A0F8442070474FF6FF718180002130
:1019D0000180C180418001727047002101804180F7
:1019E0008180C180018141818181C1817047002155
:1019F00001804180012181800021C18001817047E7
:101A00000021018041808180C180018141818181EB
:101A100070470000002C01400034014000040040E9
:101A200000080040000C004021B1028842F0010291
:101A3000028004E002884FF6FE731A40028070476D
:101A400031B1B0F8442042F40042A0F8442005E04F
:101A5000B0F84420C2F30E02A0F8442070471AB137
:101A600083890B43838102E083898B4383817047A1
:101A70008182704741EA0203A0F8483070471AB1EA
:101A800083890B43838102E083898B438381704781
:101A900001894FF6F8721140018170470A46002112
:101AA00001894FF68F73194011430181704730B59A
:101AB00004460D4629462046FFF7F0FF208940F0F6
:101AC0000700208130BD2DE9F04104460D46164641
:101AD0001F46602D06D13B46012231462046FFF7C6
:101AE0005AFE05E03B46012231462046FFF79DFEA7
:101AF00029462046FFF7D2FF208940F007002081C9
:101B0000BDE8F08130B50C4600210189C9B24FF61D
:101B1000FF7505EA0325154325432943018130BD9F
:101B20002DE9F04105460E461746984600244346E7
:101B30003A4631462846FFF7E5FF2C894FF6F87004
:101B4000044044F007044FF68F70044044F07004E2
:101B50002C81BDE8F081F0B504460D4616461F46BF
:101B60003B46324629462046FFF7CCFF208940F409
:101B700080402081F0BD0185828270470A460021A5
:101B800001884FF68F731940114301807047F0B5FB
:101B90000C4615461E460021002200230189028BB7
:101BA000038C4FF6F877394021434FF6FC473A4013
:101BB00040F201173A434FF6DD773B404FF6FF778F
:101BC00007EA06172F433B43018102830384F0BDDC
:101BD0000A460021018B4FF68F7319401143018390
:101BE00070470A460021018B48F6FF7319404FF6F3
:101BF000FF7303EA02231943018370470A46002159
:101C0000818B4FF68F7319401143818370470A46C9
:101C10000021818B48F6FF7319404FF6FF7303EAEA
:101C2000022319438183704721B1028842F0800268
:101C3000028004E002884FF67F731A4002807047EA
:101C400021B1828842F00402828004E082884FF64B
:101C5000FB731A408280704721B1828842F00802EB
:101C6000828004E082884FF6F7731A4082807047C2
:101C700021B1828842F00102828004E082884FF61E
:101C8000FE731A40828070470A460021018B4FF68E
:101C9000F77319401143018370470A460021018BF5
:101CA0004FF2FF7319404FF6FF7303EA0223194303
:101CB000018370470A460021818B4FF6F773194064
:101CC0001143818370470A460021818B4FF2FF73D5
:101CD00019404FF6FF7303EA0223194381837047CB
:101CE0000A460021018B4FF6FB7319401143018313
:101CF00070470A460021018B4FF6FF3319404FF61B
:101D0000FF7303EA02231943018370470A46002147
:101D1000818B4FF6FB7319401143818370470A464C
:101D20000021818B4FF6FF3319404FF6FF7303EA12
:101D300002231943818370470A460021018B4FF625
:101D40007F7319401143018370470A460021018BBC
:101D5000C1F30E014FF6FF7303EA02231943018317
:101D600070470A460021818B4FF67F73194011435B
:101D7000818370470A460021818BC1F30E014FF623
:101D8000FF7303EA02231943818370470A46002147
:101D9000018C4FF6FD7319401143018470470A46C8
:101DA0000021018C4FF6F7731940114301847047ED
:101DB0000A460021018C4FF6DF7319404FF6FF737E
:101DC00003EA02131943018470470A460021018C7B
:101DD0004FF67F7319404FF6FF7303EA021319435E
:101DE000018470470A460021018C4FF6FF531940C9
:101DF0004FF6FF7303EA02231943018470470A4632
:101E00000021018C4FF2FF7319404FF6FF7303EA74
:101E100002231943018470470A460021018C4DF6C4
:101E2000FF7319404FF6FF7303EA0233194301842D
:101E3000704730B5002301248C40A3B2048C9C432E
:101E40000484048C02FA01F5ADB22C43048430BD45
:101E500030B5002304248C40A3B2048C9C4304843A
:101E6000048C02FA01F5ADB22C43048430BD70B588
:101E70000346002000241846183001258D40ACB2DE
:101E80001D8CA5431D8409B1082909D100EB61000F
:101E9000056825F0700505600568154305600EE0CE
:101EA0000D1FC5F34E052844056825F4E04505607F
:101EB00005684FF6FF7606EA02263543056070BDD9
:101EC00021B1028842F00202028004E002884FF64B
:101ED000FD731A400280704721B1028842F004026B
:101EE000028004E002884FF6FB731A4002807047BC
:101EF00021B1828842F08002828004E082884FF61D
:101F00007F731A408280704702884FF6F7731A4039
:101F1000028002880A430280704782884FF68F73DE
:101F20001A40828082880A438280704702894FF675
:101F3000F8731A40028102890A43028170470289BC
:101F40004FF67F731A40028102890A43028170476B
:101F5000818470478185704781867047018770470B
:101F600081877047A0F84010704702884FF6FF4302
:101F70001A40028002880A43028070470146888E18
:101F800070470146088F70470146888F70470146A9
:101F9000B1F8400070470146888C70470146088DB3
:101FA000704702460020138A0B400BB1012000E06D
:101FB00000207047CA430282704730B502460020B5
:101FC00000230024158A05EA0103958905EA010426
:101FD00013B10CB1012000E0002030BDCA430282E1
:101FE0007047000010B50446FB48844209D1012126
:101FF0008803FFF79FF800214FF48040FFF79AF81D
:1020000032E0F648844209D101214804FFF79FF8E5
:1020100000214FF40030FFF79AF825E0F0488442A1
:1020200009D101218804FFF792F800214FF48020A4
:10203000FFF78DF818E0EB48844209D10121C8046C
:10204000FFF785F800214FF40020FFF780F80BE040
:10205000E548844208D101210805FFF778F80021FE
:102060004FF48010FFF773F810BD2DE9F04786B0EC
:1020700005460E460024A24600BFA1460027B089AF
:1020800000B100BF2F462C8A4CF6FF700440F08848
:1020900004432C82AC894EF6F3100440B088318999
:1020A0000843718908430443AC81AC8A4FF6FF4072
:1020B0000440B0890443AC8201A8FEF7B4FFC648CF
:1020C000874202D1DDF810A001E0DDF80CA0A8895C
:1020D00000F4004040B10AEBCA0000EB0A1031687E
:1020E0004900B0FBF1F807E00AEBCA0000EB0A1068
:1020F00031688900B0FBF1F86420B8FBF0F004010E
:102100002009642101FB1089A88900F4004040B136
:10211000322000EBC900B0FBF1F000F007000443EF
:1021200008E0322000EB09106421B0FBF1F000F070
:102130000F0004432C8106B0BDE8F0874FF4165120
:10214000016000218180C18001810C214181002139
:102150008181704710B502460020108A4FF2FF03BC
:1021600018400B884C8823438C882343CC88234316
:102170001843108210BD0021018041808180C18000
:10218000704721B1828942F40052828104E0828941
:102190004DF6FF731A4082817047F0B50346002464
:1021A00000260025002040F66A17B94200D100BF82
:1021B0001846C1F3421401F01F06012707FA06F57D
:1021C000012C01D10C3004E0022C01D1103000E0D0
:1021D00014301AB107682F43076002E00768AF4365
:1021E0000760F0BD1AB1838A0B43838202E0838AC1
:1021F0008B4383827047028A4FF6F0731A40028243
:10220000028A0A430282704782894FF2FF731A40A2
:10221000828182890A438281704721B1828942F09A
:102220000202828104E082894FF6FD731A408281A6
:102230007047028A4FF6DF731A400282028A0A430D
:102240000282704721B1028A42F48042028204E095
:10225000028A4BF6FF731A4002827047C1F30802EC
:102260008280704701468888C0F3080070478189E2
:1022700041F0010181817047028BD2B20283028B4F
:1022800042EA012202837047028B02F47F420283FA
:10229000028B0A430283704721B1828A42F02002F6
:1022A000828204E0828A4FF6DF731A40828270478E
:1022B00021B1828A42F01002828204E0828A4FF6C3
:1022C000EF731A408282704721B1828A42F008027D
:1022D000828204E0828A4FF6F7731A408282704746
:1022E00021B1828942F40042828103E08289C2F3F3
:1022F0000E028281704721B1828A42F4006282829A
:1023000004E0828A4FF2FF731A4082827047828A09
:102310004FF6FB731A408282828A0A438282704798
:1023200021B1828A42F00202828204E0828A4FF660
:10233000FD731A408282704702460020B1F5007F8B
:1023400000D100BF13880B400BB1012000E000203A
:10235000704701F40072B2F5007F00D100BFCA439C
:102360000280704770B5024600240023002500203B
:1023700040F66A16B14200D100BFC1F3421501F028
:102380001F03012606FA03F3012D02D1968933407B
:1023900006E0022D02D1168A334001E0968A3340CE
:1023A0000C12012606FA04F41688344013B10CB15D
:1023B000012000E0002070BD10B50022002340F68F
:1023C0006A14A14200D100BF0A1201249440A3B2B2
:1023D000DC43048010BD0000003801400044004090
:1023E00000480040004C00400050004001F0A0F9BF
:1023F00000F036FD00F0EEFD00F064FF00F0A8FFF5
:1024000000F037FF01F0DEF801F0EAF800F0F0FC30
:1024100001F024F801F081F94FF48050014908617E
:1024200000BFFEE70010014000B599B00121FE4851
:10243000FFF7C3FD00287DD0FC480078179000EB23
:10244000D07041101798A0EB4100002873D1F848D4
:102450000088F8490880F8480088F849088047F261
:102460003051F3482438FFF773FD47F23051F248FA
:102470002438FFF76DFD0320F14908601AE0F148A8
:10248000EF49096850F821100246ED480068401CE9
:1024900042F82010EC48EA49096850F82110024639
:1024A000E7480068401C42F82010E5480068401EDC
:1024B000E3490860E24800680028E0DADF48008865
:1024C000A0F5EA4030380D9001F04DFC0022DF4BC2
:1024D000CDE90E0101F061FBDD4ADE4BCDE91001D3
:1024E00001F0CDFB0022DC4BCDE9120101F0C7FB6E
:1024F000DA4ADB4BCDE9140101F04FFBCDE91601BF
:1025000001F076FCD0490860CA480088A0F5EA408E
:1025100030380D9001F027FC0022CC4BCDE90E01A4
:1025200001F03BFBCA4ACB4BCDE9100101F0A7FB00
:10253000002201E073E322E1C74BCDE9120101F073
:102540009EFBC64AC64BCDE9140101F026FBCDE93E
:10255000160101F04DFCBB490860084600690D906A
:1025600001F033FCBF4AC04BCDE90E0101F015FB71
:10257000CDE91201B348C068099001F026FC4FF084
:102580003332BA4BCDE90A0101F007FBCDE90E0168
:10259000AC488068059001F018FC0022B44BCDE9EE
:1025A000060101F0FAFACDE90A01A6484068019057
:1025B00001F00BFC4FF06632AE4BCDE9020101F0A9
:1025C000ECFACDE906019F480068019001F0FDFB9F
:1025D000A94AAA4BCDE9020101F0DFFACDE90401D5
:1025E000DDE9062301F032FACDE90801DDE90A232D
:1025F00001F02CFACDE90C01DDE90E2301F026FAF9
:10260000CDE91001DDE9122301F020FA954A9C4B37
:10261000CDE9140101F0C1FACDE9160101F0E8FBA2
:1026200098490860884800690D9001F0CEFB8D4AFA
:102630008D4BCDE90E0101F0B0FACDE912018248CF
:10264000C068099001F0C1FB4FF03332874BCDE9F0
:102650000A0101F0A2FACDE90E017B4880680590DD
:1026600001F0B3FB0022824BCDE9060101F095FA9F
:10267000CDE90A0174484068019001F0A6FB4FF0D3
:1026800066327C4BCDE9020101F087FACDE9060103
:102690006D480068019001F098FB774A774BCDE9CF
:1026A000020101F07AFACDE90401DDE9062301F027
:1026B000CDF9CDE90801DDE90A2301F0C7F9CDE93B
:1026C0000C01DDE90E2301F0C1F9CDE91001DDE9CE
:1026D000122301F0BBF9634A694BCDE9140101F003
:1026E0005CFACDE9160101F083FB6749086000211F
:1026F0006448006801F0A2FB02D26248006803E06F
:102700006048006880F000405E49086000215E4833
:10271000006801F093FB02D25B48006803E05A486E
:10272000006880F0004058490860584801685548E2
:10273000006801F02DF8159054480168159801F0D3
:10274000BDF85349169001F011F901461790052084
:1027500000F020FD4F4801684B48006801F052F836
:1027600015904C480168159801F0A8F84849169052
:1027700001F0FCF801461790062000F00BFD2B48F5
:1027800000781E2190FBF1F201FB1200002849D1D4
:102790004148006880F480703F4908603F480088E5
:1027A000119001F0DBFA4FF08B41129001F010F91B
:1027B000139001F00AFB4FF06632394BCDE914015A
:1027C00001F0EBF9CDE9160101F012FB3549086083
:1027D00032484088119001F0C1FA4FF08B411290BD
:1027E00001F0F6F8139001F0F0FA4FF066322C4B3E
:1027F000CDE9140101F0D1F9CDE9160101F0F8FAA3
:102800002849486025488088119001F0A7FA4FF0C8
:102810008B41129001F0DCF8139001F0D6FA4FF0E2
:10282000663241E0C2E000000010004038000020A5
:10283000240800403E000020240C00403C00002002
:102840002C000020B00000209C0000200000D03FA1
:102850007B14AE47E17A943F00E8C7402506819596
:10286000438BCC3F9A9999999999B93F3333D33F88
:102870000000E03F6666E63FCDCCCCCCCCCCEC3F54
:102880009999D93F400000204400002054000020C6
:1028900000401C46580000200C180140DC000020BD
:1028A00066660A40C4000020FE4BCDE9140101F029
:1028B00074F9CDE9160101F09BFAFB498860FB48E9
:1028C000C088119001F04AFA4FF08B41129001F04C
:1028D0007FF8139001F079FA4FF06632F14BCDE9B1
:1028E000140101F05AF9CDE9160101F081FAEE491F
:1028F000C860EE480089119001F030FA4FF08B412A
:10290000129001F065F8139001F05FFA4FF0663213
:10291000E44BCDE9140101F040F9CDE9160101F0D5
:1029200067FAE1490861E1484089119001F016FA1F
:102930004FF08B41129001F04BF8139001F045FAE3
:102940004FF06632D74BCDE9140101F026F9CDE9FD
:10295000160101F04DFAD4494861D548006801F0EC
:1029600034FACDE91601D348006801F02EFACDE91A
:102970001401D148006801F028FACDE91201CF48CE
:10298000006801F022FACDE91001DDE91601CDE978
:102990000401DDE91401CDE90201DDE91201CDE90F
:1029A0000001C7A0DDE9102301F0A0FBCC4800889E
:1029B0000A2190FBF1F201FB120000287DD1C948E9
:1029C00000780028FAD1C8480078642876DAC74829
:1029D000C0790F9001F0D8F90022C54BCDE9100164
:1029E00001F04DF90022C34BCDE9120101F0D5F8F9
:1029F000CDE9140101F0FCF901461790012000F027
:102A0000C9FBBA48007A0F9001F0BEF90022B84B1A
:102A1000CDE9100101F033F90022B64BCDE91201E6
:102A200001F0BBF8CDE9140101F0E2F9014617907D
:102A3000022000F0AFFBAD48407A0F9001F0A4F9FE
:102A40000022AB4BCDE9100101F019F90022A94B8E
:102A5000CDE9120101F0A1F8CDE9140101F0C8F9A6
:102A600001461790032000F095FBA048807A0F9054
:102A700001F08AF900229E4BCDE9100101F0FFF828
:102A800000229C4BCDE9120101F087F8CDE9140139
:102A900001F0AEF901461790042000F07BFB93484B
:102AA000C07A0F9001F070F90022914BCDE910012E
:102AB00001F0E5F800228F4B01E08AE08AE0CDE9E1
:102AC000120101F06AF8CDE9140101F091F9014613
:102AD0001790052000F05EFB8448007B0F9001F00A
:102AE00053F90022824BCDE9100101F0C8F8002211
:102AF000804BCDE9120101F050F8CDE9140101F04D
:102B000077F901461790062000F044FB7748807B58
:102B100070B9082078490860802078490860402012
:102B200008602020091D08600020754908705FE0DA
:102B30006E48807B012810D108206F49091F08606A
:102B400080206E49091D0860402008602020091F70
:102B5000086001206A4908704AE06448807B0228C6
:102B60000FD1082064490860802064490860402033
:102B7000091D08602020091F0860022060490870B4
:102B800036E05A48807B032811D108205A49091F92
:102B9000086080205949091D08604020091F08600D
:102BA0002020091D086003205549087020E04F4887
:102BB000807B04281CD108204F49086080204F49A1
:102BC000091D0860402008602020086004204C494E
:102BD00008700DE008204849086080204749091D19
:102BE00008604020086020200860042044490870E4
:102BF0003B480088401C3A49088042480078401C05
:102C00004049087038480078FF2804DA36480078D0
:102C1000401C3549087001213B48FFF7DFF919B026
:102C200000BD10B540F225513848FFF79BFB28B393
:102C30003648FFF717FB364908703648006880F4BD
:102C400080503449086032480078112802D0324858
:102C5000007880B12E48007824492F4A1278885491
:102C60002D480078401C2C4908700846007811282F
:102C700001D10020087000201B49087010BD10B55C
:102C8000012440F225512548FFF76CFB002854D061
:102C90002248FFF7E7FAC4B2302C4FD14FF07C51F5
:102CA00008463DE066660A40C4000020DC000020C3
:102CB0005800002054000020440000204000002064
:102CC000456E636F6465723A256620202566205440
:102CD00061726765743A2566202025660A00000047
:102CE0003600002029000020390000208800002044
:102CF00000E06F400088D340140C014010140140E4
:102D0000280000203800002000100040004800404B
:102D10003B0000200C18014030000020003801402A
:102D200000F0AAFD08202D49086080202C49086089
:102D3000402008602020091D08604EE0312C10D191
:102D40002849294800F098FD08202449086080207F
:102D5000234908604020091D08602020091F0860E1
:102D60003BE0322C12D120491E4800F085FD08209E
:102D70001A49091F086080201949091D0860402070
:102D8000091F08602020091D086026E0332C12D19D
:102D90004FF07C51084600F06FFD08200F49091FD5
:102DA000086080200E49091D08604020086020202E
:102DB000091F086011E0342C04D10021084600F0FE
:102DC0005BFD0AE0352C03D100200849087004E0BF
:102DD000362C02D101200549087010BD140C0140A9
:102DE000101401403333333F9A99993E2900002053
:102DF00008B54FF4A060FDF7A7FA27208DF8000072
:102E000001208DF801008DF802008DF8030068465E
:102E1000FDF79FFA4FF4A060FDF796FA25208DF894
:102E2000000001208DF801008DF802008DF80300EC
:102E30006846FDF78EFA4FF4E060FDF785FA36201C
:102E40008DF8000000208DF8010003208DF80200AD
:102E500001208DF803006846FDF77BFA08BD0000ED
:102E600000B585B001211020FEF74AF94FF48050DB
:102E7000ADF8000010208DF8030003208DF802004B
:102E800069465148FDF780FE01210820FEF738F918
:102E900001218804FEF741F94FF48060ADF800008D
:102EA00018208DF8030003208DF80200694647487A
:102EB000FDF76AFE4FF40060ADF8000004208DF8C5
:102EC000030069464148FDF75FFE4FF4E130019091
:102ED0000020ADF80800ADF80A00ADF80C00ADF820
:102EE00010000C20ADF80E0001A93948FFF7BDF81D
:102EF000012240F225513648FFF74FF901213448AD
:102F0000FFF73FF905B000BD70B504460D462946F0
:102F10002046FFF7A3F900BF80212046FFF70CFAF7
:102F20000028F9D070BD70B506460C46002500BFDC
:102F3000615D3046FFF7E8FF6D1C605D0028F7D14A
:102F400000BF40213046FFF7F7F90028F9D070BDE7
:102F50002DE9F04105460C46260AE7B231462846DF
:102F6000FFF77CF900BF80212846FFF7E5F900282C
:102F7000F9D039462846FFF771F900BF802128466D
:102F8000FFF7DAF90028F9D0BDE8F08170B5044602
:102F90000D46E1B20E48FFF761F900BF80210C48F1
:102FA000FFF7CAF90028F9D0204670BD10B50446D5
:102FB00000BF20210648FFF7BFF90028F9D00448D8
:102FC000FFF750F910BD000000100140000C014057
:102FD0000048004000B585B001210420FEF790F8BC
:102FE00001218803FEF78CF84FF40070ADF8100053
:102FF00018208DF8130003208DF8120004A916483C
:10300000FDF7C2FD4FF48060ADF8100004208DF88C
:10301000130004A91048FDF7B7FD4FF416500090B7
:103020000020ADF80400ADF80600ADF80800ADF8DA
:103030000C000C20ADF80A0069460848FFF715F8A7
:10304000012240F225510548FFF7A7F80121034866
:10305000FFF797F805B000BD0008014000380140B7
:1030600008B501211420FEF74BF84FF41060ADF8BD
:10307000000018208DF8030003208DF80200694637
:103080008B48FDF781FD4FF47070ADF800001820FB
:103090008DF8030003208DF8020069468548FDF78E
:1030A00073FD08BD00B587B001214FF42050FEF735
:1030B00027F844F61F60ADF814004720ADF8100063
:1030C0000020ADF81600ADF812008DF8180004A924
:1030D0007948FEF74DF96020ADF800000120ADF809
:1030E00002000020ADF8040040F2DC50ADF806000C
:1030F0000020ADF80800ADF80A004FF48070ADF87C
:103100000C000020ADF80E0069466B48FEF76DF923
:1031100008216948FEF7B8FD69466748FEF73FFA9F
:1031200008216548FEF7CFFD01216348FEF77CFCCE
:1031300001216148FEF784FC04A96048FEF718F9F4
:1031400069465E48FEF751F908215C48FEF79CFD90
:1031500069465A48FEF78BF908215848FEF79DFD4D
:1031600069465648FEF7D0F908215448FEF7A2FDFB
:1031700069465248FEF713FA08215048FEF7A3FDAE
:1031800001214E48FEF750FC01214C48FEF758FC47
:1031900007B000BD70B504460D460021284600F07A
:1031A00043FE00D200254649284600F047FE00D2E3
:1031B000434D072C5BD2DFE804F05A040D161F289C
:1031C0004100284600F0EDFD86B231463B48FEF74F
:1031D000C3FE4CE0284600F0E4FD86B23146374895
:1031E000FEF7BCFE43E0284600F0DBFD86B2314628
:1031F0003248FEF7B5FE3AE0284600F0D2FD86B22E
:1032000031462E48FEF7AEFE31E0284600F0C9FDFB
:1032100086B231462948FEF79FFE284600F0C1FDE0
:1032200086B231462548FEF79BFE284600F0B9FDE0
:1032300086B231462048FEF78FFE18E0284600F09F
:10324000B0FD86B231461D48FEF788FE284600F0E4
:10325000A8FD86B231461948FEF784FE284600F0E4
:10326000A0FD86B231461448FEF77CFE00BF00BFC9
:1032700070BD10B5FFF7F4FEFFF714FF0021012029
:10328000FFF788FF00210220FFF784FF00210320C1
:10329000FFF780FF00210420FFF77CFF00210520BD
:1032A000FFF778FF00210620FFF774FF10BD000034
:1032B0000008014000100140002C01400034014092
:1032C00000409C4608B501214020FDF719FF4FF44E
:1032D0008070ADF8000010208DF8030003208DF8F9
:1032E000020069460A48FDF74FFC4FF48050ADF8E4
:1032F000000069460648FDF747FC4FF4807104481A
:10330000FDF7F1FC4FF480510148FDF7EAFC08BDE0
:10331000001801400EB501211020FDF7FEFE42F21B
:103320000F70ADF804004720ADF8000069460A4868
:10333000FEF71EF801210848FEF73CFE0122114667
:103340000548FEF78CFB01210348FEF76DFB0EBD1F
:1033500010B5FFF7DFFF10BD0010004008B50121D8
:103360000C20FDF7CDFEC020ADF8000048208DF800
:10337000030069463C48FDF707FC0320ADF8000058
:1033800048208DF8030069463848FDF7FDFB08BD6D
:1033900000B587B001210C20FDF7BFFE3448FDF7D2
:1033A00013FF344800684FF6FF7101EA8000ADF862
:1033B00014000020ADF81000ADF812008DF81800D0
:1033C00004A92B48FDF7D4FF00231A4603212848FF
:1033D000FEF7DDFB0620ADF80C0001A8FEF707FBA9
:1033E00001A92348FEF757FA47F23050204924310B
:1033F000088001211E48FEF717FB1F48FDF7E4FE79
:103400001C4800684FF6FF7101EA8000ADF8140017
:103410000020ADF81000ADF812008DF8180004A9D6
:103420001548FDF7A5FF00231A4603211248FEF7B1
:10343000AEFB0620ADF80C0001A8FEF7D8FA01A9F2
:103440000D48FEF728FA47F230500B492431088026
:1034500001210948FEF7E8FA07B000BD10B5FFF7F3
:103460007DFFFFF795FF10BD000C014000080140F3
:103470000008004048000020000C004008B5012171
:103480001020FDF73DFE3F20ADF8000000208DF834
:10349000030069464E48FDF777FB08BD00B591B0C3
:1034A00001210846FDF71FFE01214802FDF728FE15
:1034B0004848FDF7DFF94848069048480790002043
:1034C00008900620099000200A9080200B90400070
:1034D0000C9080000D9020200E9000020F90002094
:1034E000109006A93B48FDF767FA01213948FDF71E
:1034F0008EFA0020019001208DF808008DF8090057
:103500004FF4602003900020049006208DF81400F2
:1035100001A931484C38FCF7ACFF4FF44040FDF7AF
:1035200053FD052301220A212B484C38FDF739F8B9
:10353000052302220B2128484C38FDF732F80523D9
:1035400003220C2124484C38FDF72BF805230422D4
:103550000D2121484C38FDF724F805231A460E2189
:103560001D484C38FDF71DF8052306220F211A4887
:103570004C38FDF716F8012117484C38FCF7B0FF1E
:10358000012115484C38FCF7A0FF13484C38FCF7D4
:10359000BEFF00BF10484C38FCF7BEFF0028F9D131
:1035A0000D484C38FCF7C2FF00BF0B484C38FCF705
:1035B000C2FF0028F9D1012107484C38FCF7C5FFAC
:1035C00011B000BD10B5FFF759FFFFF767FF10BD41
:1035D00000100140080002404C240140DC000020A3
:1035E00008B501214020FDF78BFD4FF40040ADF8F8
:1035F000000010208DF8030003208DF802006946BA
:103600000448FDF7C1FA4FF400410248FDF76BFB97
:1036100008BD00000018014010B50446142001F058
:1036200007FA60602060206808B9002010BD002003
:10363000216808610120F9E710B5044607E0206819
:1036400000696060206801F0CBF960682060206844
:103650000028F4D1012010BD70B5044620686060D8
:103660002068056900202168086104E02E462D6964
:10367000304601F0B5F9002DF8D1012070BD03B539
:10368000DDE90001884201D101200CBD0020FCE7EA
:1036900003B50022009901E0521C09690198884293
:1036A000FAD1D0B20CBD2DE9F04106460F461420E8
:1036B00001F0BEF9054615B90020BDE8F0810024EF
:1036C00002E0385D2855641C0F2CFADB00202861CD
:1036D0007068056175600120EFE770B50446D4E9B4
:1036E0000001884201D1002070BD20680569286969
:1036F000216808616068A84201D12068606028469E
:1037000001F06EF90120EFE703B50098016900E0D0
:1037100009690029FCD101200CBD10B50348FFF751
:103720007BFF08B9002010BD0120FCE74C00002001
:1037300008B501212920FDF7E3FC01215148FDF7DF
:10374000F4FAE020ADF8000010208DF8030003200B
:103750008DF8020069464C48FDF716FA0820ADF8CE
:10376000000010208DF8030003208DF80200694648
:103770004648FDF709FA08204449143108608020C2
:10378000414914310860402008602020086008BDCD
:103790002DE9F04704460D462946204600F0E3F89F
:1037A0003B490860084601683A48006800F086F81E
:1037B00038490860384801683548006800F0D0F89A
:1037C0008046002100F0D2F8064632480168002009
:1037D00000F0CCF880462E480168304800F0C6F86A
:1037E0008146414600F06AF80746314600F066F827
:1037F0002B49086026480068274908602848006867
:10380000BDE8F0872DE9F04704460D4629462046DD
:1038100000F0A9F8234908600846016822480068BA
:1038200000F04CF820490860204801681D480068F5
:1038300000F096F88046002100F098F806461A48F5
:103840000168002000F092F880461648016813488D
:1038500000F08CF88146414600F030F807463146CA
:1038600000F02CF8124908600E4800680F49086003
:103870000F480068BDE8F0870E4A10600E4A1160DC
:10388000704700000002300000140140000C0140AD
:103890005C00002064000020680000200000C040A0
:1038A000600000206C0000207400002078000020E0
:1038B000700000205400002058000020F0B480EA7E
:1038C0000102D40F4200B2EB410F02D20246084679
:1038D00011464A0042D0C30DDDB2C1F3C752AD1A42
:1038E000202D35DAC1F3160141F4000204B1524231
:1038F000C5F1200602FA06F12A411044B3EBD05F6D
:1039000023D0C4B1012DA0EBC35009DCF0BC4FF0B3
:10391000004202EAC352DBB200F5000000F009BB2E
:10392000400000F1807000EBC350A0F1807040EACD
:10393000D170490009E0490841EAC071A0EBC350C9
:1039400000F50000400800EBC350F0BC00F0E8BAFE
:103950006142012202EB4101001BF6E7F0BC704717
:1039600081F00041AAE780F00040A7E780EA010269
:1039700010B502F00043400022D04A001FD0010ED3
:1039800001EB1261C0F35600C2F3560240F400008E
:1039900042F40002A0FB022000047F39140400D08E
:1039A000401C50EA124001D44000491EC2B20C062D
:1039B00004EBD010401C4008802A02D003E0002015
:1039C00010BD20F00100002900DA0020184310BDCE
:1039D00030B480EA010202F0004530F0004221F0EC
:1039E000004013D090B1C30DD40DC2F31601C0F343
:1039F0001600E41A41F4000140F400027D349142C3
:103A000001D3641C00E04900002C02DA30BC002025
:103A100070474FF400000023914201D3891A0343F9
:103A200040084FEA4101F7D151B1914202D14FF024
:103A3000004105E002D24FF0010101E06FF0010109
:103A400003EBC450284430BC00F06ABA2DE9FE4FA5
:103A5000804681EA0300C00F0C46009021F000412F
:103A600023F00045B8EB0200A94105D240462146AB
:103A700090461C460B46024623F00040104347D0B8
:103A8000270DC7F30A00C3F30A510290401A0190B0
:103A900040286BDAC3F3130040F4801B0098924671
:103AA00020B10023D2EB030A63EB0B0B01985946BC
:103AB000C0F14002504600F012FA06460D4650464C
:103AC0005946019A00F01AFA10EB080061410024EF
:103AD00087EA115284EAE7731A4340D0009A62B32E
:103AE000019A012A4FEA075215DC001B61EB020123
:103AF0004FF0004202EA0752CDE90042001C41F5B6
:103B0000801132462B4600F051FA03B0BDE8F08F29
:103B100040462146F9E7001B61EB0201001C41F51C
:103B2000801300185B412018A2F5001747EB030132
:103B300040EAD570B6196D4111E06D084FEA3606BE
:103B400045EAC0754FEA0752001B61EB0201001CF9
:103B500041F5801149084FEA3000001951413246C1
:103B60002B4603B0BDE8F04F00F011BA00980122D7
:103B700040000023D0EB020263EBE0730098214683
:103B80004FEAE074B8EB000061EB0401E9E783F071
:103B900000435BE781F0004158E72DE9FE4F81EAE1
:103BA000030404F0004421F0004100944FF0000BA6
:103BB00023F0004350EA01045ED052EA03045BD0D4
:103BC000C3F30A54C1F30A552C44A4F2F33401940C
:103BD000A0FB0254C1F3130141F48011C3F313039A
:103BE00043F4801301FB024400FB034E840A970A4E
:103BF00044EA815447EA8357A4FB076802958D0A7B
:103C000005FB07854FEA932C04FB0C542705029D06
:103C10004FEA065847EA1637B5EB08056EEB070C76
:103C2000870E920E47EA811742EA8312A7FB020130
:103C3000B6EB0B0164EB00042B0D43EA0C335E186A
:103C400044EB1C50DA465146E7FB0201C5F313046E
:103C50004FEA0B3343EA14534FEA0432019C43EA20
:103C60000603A4F10C040294009CCDE900B400F01A
:103C70009DF903B0BDE8F08F00200146F9E72DE97A
:103C8000F04D81EA030404F0004B21F00045144696
:103C90004FF0000A23F0004150EA050220D054EA18
:103CA00001021DD0C5F30A570246C5F31303C1F341
:103CB0001300C1F30A5640F4801543F48013A7EBB8
:103CC0000608101BD64608F2FD3873EB050002D338
:103CD00008F1010801E092185B41B8F1000F03DA26
:103CE00000200146BDE8F08D00204FF4801106460B
:103CF00084460EE0171B73EB050705D3121B63EB1D
:103D0000050306434CEA010C49084FEA30009218BB
:103D10005B4150EA0107EDD152EA030012D082EA7A
:103D2000040083EA0501084305D0101BAB4106D20D
:103D30000122002306E000224FF0004302E06FF072
:103D4000010253101AEB06004CEB085110EB0A006D
:103D500041EB0B01BDE8F04D00F019B996230022AC
:103D6000114600F0E6B80EB5C10F80EAE0700844D5
:103D7000CA07002140F233438DE80E000A460B4685
:103D800000F014F903B000BD0EB540F233410291CA
:103D90000021CDE900110A460B4600F007F903B0F7
:103DA00000BD20F00040C10DC0F3160040F400003B
:103DB0007F2901DA00207047962903DCC1F19601C2
:103DC000C840704796398840704700F0004230F094
:103DD00000400AD0C10D01F56071C0F3160042EA3F
:103DE0000151C20840071143704700200146704747
:103DF00001F0004330B421F0004150EA010206D046
:103E00000A0DA2F56072C1F31301002A02DC30BC76
:103E100000207047440F44EAC104C100E01830BCE0
:103E200000EBC25000F07CB8002801DBC0F100407C
:103E3000002901DBC1F1004181427047002801DB0C
:103E4000C0F10040002901DBC1F100418842704708
:103E500030B50B46014600202022012409E021FA5A
:103E600002F59D4205D303FA02F5491B04FA02F557
:103E70002844151EA2F10102F1DC30BD2DE9F05FEE
:103E80000546002092469B468846064681464024C9
:103E90001BE0284641464746224600F017F95346A4
:103EA0005A46C01A914110D311461846224600F0D6
:103EB00016F82D1A67EB01084F4622460120002113
:103EC00000F00DF817EB00094E41201EA4F101048B
:103ED000DFDC484631462A464346BDE8F09F202AAB
:103EE00004DB203A00FA02F1002070479140C2F151
:103EF000200320FA03F3194390407047202A06DB81
:103F0000CB17203A41FA02F043EAE07306E041FAA7
:103F100002F3D040C2F12002914008431946704795
:103F20000029A8BF7047401C490008BF20F00100CD
:103F3000704710B4B0FA80FC00FA0CF050EA0104AB
:103F400004BF10BC704749B1CCF1200421FA04F43D
:103F500011FA0CF118BF012121430843A3EB0C0116
:103F6000CB1D4FEA00614FEA102042BF002010BC79
:103F7000704700EBC35010440029A4BF10BC704729
:103F8000401C490008BF20F0010010BC704710B56C
:103F9000141E73F1000408DA401C41F1000192186C
:103FA0005B411A4301D120F0010010BD2DE9F04D15
:103FB00092469B4611B1B1FA81F202E0B0FA80F26A
:103FC00020329046FFF78BFF04460F4640EA0A0076
:103FD00041EA0B0153465A46084313D0114653EAAF
:103FE000010019D0C8F14002504600F06FF80546B4
:103FF0000E46504659464246FFF771FF084305D02A
:10400000012004E020463946BDE8F08D002005433C
:1040100046EAE0762C4337430A986305E40AA0EBAE
:1040200008000022FD0A44EA47540A3002D5002065
:104030000146E9E7010510196941DDE90845001964
:104040006941BDE8F04DA2E7C1F30A52C1F3130183
:1040500040F2FF3341F480119A4202DA0020014617
:10406000704740F233439A42A2F2334202DC52429A
:1040700000F02CB8FFF733BF30B5041E71F1000417
:1040800004DB4FF00044404264EB0101141E73F165
:10409000000405DB1C464FF00043524263EB04036F
:1040A000994208BF904230BD064C074D06E0E068DB
:1040B00040F0010394E8070098471034AC42F6D36F
:1040C000FCF73AF89C4A0008BC4A0008202A04DBA6
:1040D000203A21FA02F00021704721FA02F3D04081
:1040E000C2F1200291400843194670470FB4054BB6
:1040F00010B503A9044A029800F0DAF810BC5DF884
:1041000014FB00008D2F00087C00002002E008C88E
:10411000121F08C1002AFAD170477047002001E041
:1041200001C1121F002AFBD1704700002DE9FF5F7B
:1041300082B00021DDE90430020DDDF840B0034318
:1041400018D044F61050A2F2FF32424315141198D1
:1041500001281FD0A5EB0B00401C5FEA000A4FF0BE
:1041600000064E4FDFF83891B046504615D5CAF1DB
:10417000000413E0119801244AA3012801D16FEA39
:104180000B010298119AC0E90031C0E9024206B061
:10419000BDE8F09FCBF10000DFE704460021404A74
:1041A000491842EB0450CDE9001012E0E00707D0B7
:1041B00032463B4640464946FFF7EFFC804689467B
:1041C00032463B4610461946FFF7E7FC06460F46C7
:1041D0006410002CEAD1DDE90401DDE90023BAF125
:1041E000000F06DAFFF7D9FC42464B46FFF7D5FC35
:1041F00005E0FFF744FD42464B46FFF740FD04460D
:104200000E460022284BFFF737FF03D84FF0FF3050
:10421000014607E00022254B20463146FFF716FCF9
:10422000FFF712FF102409E0002C0ADB0A2200230A
:10423000FFF724FE039B30321A55641E50EA010238
:10424000F2D1641C039AC4F111031444119A012A97
:1042500003D0012208430DD10AE0084304D0002016
:104260004FF0110B119072E7A3EB0B056D1E0DE0E3
:104270005B4504DD4FF0000205F1010504E003DABF
:104280004FF00002A5F10105002AECD00298119927
:10429000C0E90231C0E9004579E7000000001440A0
:1042A0000000F03F300000000000F0430000E03F5D
:1042B0002DE9FF4F95B09B468946064600250FE243
:1042C000252877D100242746F84A0121059400E0EB
:1042D000044316F8013F203B01FA03F01042F7D1E6
:1042E00030782A2811D06FF02F033078A0F13002F7
:1042F000092A16D8059A44F0020402EB820203EB65
:1043000042021044761C0590EFE759F8042B059201
:10431000002A03DA504244F40054059044F00204A9
:10432000761C30782E2816D116F8010F44F00404BC
:104330002A280DD06FF02F023078A0F13003092B1E
:1043400009D807EB870302EB4303C718761CF3E792
:1043500059F8047B761C30786C280FD006DC4C288A
:1043600017D068280DD06A2814D104E0742810D022
:104370007A280FD10DE044F400140AE044F48014CC
:1043800001E044F440147278824202D104F58014B2
:10439000761C761C307866280BD013DC582877D032
:1043A00009DC002875D04528F6D04628F4D04728E7
:1043B0001AD19DE118E0632835D0642879D06528AA
:1043C00012D195E1702873D008DC6728F1D06928F4
:1043D0006FD06E280DD06F2806D1B5E073282CD091
:1043E000752875D0782874D05A46179990476D1C57
:1043F00075E1C4F30250022809D003280DD0D9F882
:10440000001004280DD00D6009F1040967E1D9F806
:104410000010EA17C1E90052F6E7D9F800100D8044
:10442000F2E70D70F0E719F8041B8DF8001000207A
:104430008DF80100EA46012003E059F804AB4FF083
:10444000FF3061074FF0000102D40DE008F10101D7
:104450008846B9420FDA8045F8DB1AF808100029BF
:10446000F4D108E008F1010188468142FADB1AF82C
:1044700008100029F6D105985B46A0EB08072146F5
:104480003846179A00F094FA284400EB080507E034
:104490004DE029E10DE01AF8010B5A4617999047B3
:1044A000B8F10108F7D25B4621463846179A13E166
:1044B00042E00A220092C4F302524FF0000A022A9C
:1044C00008D059F804CB032A4FEAEC710AD00DE06A
:1044D00029E02AE009F1070121F00702F2E802C110
:1044E000914609E00FFA8CFC4FEAEC71042A03D1E3
:1044F0004FFA8CFC4FEAEC71002907DA0A460021DA
:10450000DCF1000C61EB02012D2202E0220504D552
:104510002B228DF80420012203E0E20701D02022A3
:10452000F7E7904659E00A2102E010220DE0102141
:104530004FF0000A00910BE010224FF0000A44F007
:1045400004040827009203E008224FF0000A0092BA
:10455000C4F30252022A05D059F804CB0021032AE1
:1045600008D009E009F1070121F00702F2E802C1D1
:10457000914605E01FFA8CFC042A01D10CF0FF0CD7
:104580004FF00008220728D5702806D0009B83F042
:10459000100353EA0A0305D00EE040228DF80420F0
:1045A000012208E05CEA010206D030228DF80420E6
:1045B0008DF8050002229046009B83F0080353EA21
:1045C0000A030AD15CEA010201D1620705D5302253
:1045D0008DF804204FF001087F1E582804D034A025
:1045E00003900EA802900DE036A0F9E7534660460E
:1045F000009AFFF743FC84460398825C0298401EB1
:10460000029002705CEA0100F0D1029806A9081A33
:1046100000F1200A600702D524F4803400E001276D
:10462000574502DDA7EB0A0000E0002000EB0A017D
:10463000009005984144401A0590E00306D45B467B
:104640002146179A059800F0B3F90544002706E0C3
:1046500001A85A46C05D179990476D1C7F1C4745BD
:10466000F6DBE0030CD55B462146179A059800F06F
:104670009FF9054404E030205A46179990476D1C75
:104680000099481E00900029F5DC08E00298029984
:104690005A460078491C0291179990476D1CBAF14F
:1046A0000001AAF1010AF1DC65E10000092801001E
:1046B0003031323334353637383961626364656698
:1046C000000000003031323334353637383941425A
:1046D000434445460000000000F058F90544761CAC
:1046E000307800287FF4ECAD19B02846BDE8F08F93
:1046F000620700D4062709F1070222F0070CFCE844
:104700000223E14603F000485FEA080C02D00FF2F2
:10471000702C0DE05FEA045C02D50FF2682C07E014
:104720005FEAC47C02D00FF2602C01E0AFF2700CA3
:104730004FF0FF3823F00043CDF850C065280CD06F
:1047400006DC452809D046281DD047283DD13DE04C
:10475000662818D067287ED138E00021112F01DBB0
:10476000112000E0781CCDE9000106A90EA8FFF792
:10477000DDFCDDE90F010E9A03910021009207F1A3
:10478000010A04914DE04FF000400097CDE901107F
:1047900006A90EA8FFF7CAFCDDE90F0203920E9BE3
:1047A00011990022DDF80CA00093049211B9791C34
:1047B00000EB010AB7EB0A0004D4C0F1FF3007F1A7
:1047C000010A0490AAEB0700019044E0012F00DAEF
:1047D00001270021112F01DD112000E03846CDE92D
:1047E000000106A90EA8FFF7A1FCDDE90F010E9A52
:1047F0000391002104910092BA4621070CD4039939
:10480000514500DA8A46BAF1010F05DD009AAAF196
:104810000101515C302908D0B84202DA10F1040FCE
:1048200006DA0121CDE9011015E0AAF10101E9E75D
:10483000002805DC049901440491AAEB000102E080
:10484000411C514500DD8A460499401A401C0190E4
:104850004FF000400290200704D40198504501DB3E
:10486000CDF8048000208DF84F0002980DF14F071D
:10487000B0F1004F25D02B200E9002984FF0020887
:1048800000280CDA404202902D200E9007E00A2109
:104890000298FFF7DDFA3031029007F8011DB8F1F8
:1048A0000001A8F10108F2DC02980028EFD1791E7E
:1048B0000E980870307800F0200040F0450007F8AE
:1048C000020D12A8C01B00F107081498007800B16F
:1048D000012000EB0A01019801EBE07105984144C9
:1048E000401A401E0590E00306D45B462146179A05
:1048F000059800F05DF805441498007818B15A4600
:10490000179990476D1CE00324D55B462146179A02
:10491000059800F04DF805441CE00498002807DBDA
:10492000DDE90301884203DD0098405C179901E04E
:10493000179930205A469047049805F10105401C0C
:1049400004900198401E019004D12E205A461799D8
:1049500090476D1CBAF10001AAF1010ADDDC05E007
:1049600017F8010B5A46179990476D1CB8F10001D2
:10497000A8F10108F4DC5B462146179A0598ABE6DE
:104980002D0000002B000000200000002DE9F04168
:10499000044600251E461746880404D405E039461F
:1049A0002020B0476D1C641EF9D52846BDE8F08173
:1049B0002DE9F041044600251E469046C80301D566
:1049C000302700E02027880404D505E0414638461A
:1049D000B0476D1C641EF9D52846BDE8F081000083
:1049E00010B5002821D0114B0022001F196803E0E8
:1049F000814203D80A4649680029F9D152B11368A7
:104A0000841A9C4204D1006818441060104602E0E9
:104A1000506000E0186039B102680B1A934203D16C
:104A20000B681A4402604968416010BD8000002094
:104A3000F0B50B30154D20F007010024144A0FE0AB
:104A400003688B420BD38B4205D95E1A4318476823
:104A5000C3E9006700E04368136002C004E0021D80
:104A600010680028ECD12046002802D1286808B13F
:104A70000020F0BD064A07481060074A121A22F0CB
:104A80000702C0E9002401202860D7E78400002045
:104A900080000020EC000020E8800020BC4A0008D4
:104AA00000000020880000000C410008444B000872
:104AB00088000020608400001C41000800A24A0415
:104AC00000000000000000000102030406070809BE
:104AD00000000000010203040102030406070809A4
:104AE00002040608040000000000000000000000AE
:104AF00000000000000000000000000000000000B6
:104B000000000000983A00000000000000000000D3
:104B10000000000000000000000000000000000095
:104B20000000000000000000000000000000000085
:104B30000000000000000000000000000000000075
:044B40000000000071
:0400000508000131BD
:00000001FF
